Component: ARM Compiler 6.16 Tool: armlink [5dfeaa00]

==============================================================================

Section Cross References

    startup_gd32e23x.o(RESET) refers to startup_gd32e23x.o(STACK) for __initial_sp
    startup_gd32e23x.o(RESET) refers to startup_gd32e23x.o(.text) for Reset_Handler
    startup_gd32e23x.o(RESET) refers to loadmain.o(.text.HardFault_Handler) for HardFault_Handler
    startup_gd32e23x.o(RESET) refers to loadmain.o(.text.SysTick_Handler) for SysTick_Handler
    startup_gd32e23x.o(RESET) refers to bspdma.o(.text.DMA_Channel0_IRQHandler) for DMA_Channel0_IRQHandler
    startup_gd32e23x.o(RESET) refers to bspdma.o(.text.DMA_Channel1_2_IRQHandler) for DMA_Channel1_2_IRQHandler
    startup_gd32e23x.o(RESET) refers to bspdma.o(.text.DMA_Channel3_4_IRQHandler) for DMA_Channel3_4_IRQHandler
    startup_gd32e23x.o(RESET) refers to bsptimer.o(.text.TIMER2_IRQHandler) for TIMER2_IRQHandler
    startup_gd32e23x.o(RESET) refers to bsptimer.o(.text.TIMER5_IRQHandler) for TIMER5_IRQHandler
    startup_gd32e23x.o(RESET) refers to bsptimer.o(.text.TIMER13_IRQHandler) for TIMER13_IRQHandler
    startup_gd32e23x.o(RESET) refers to bsptimer.o(.text.TIMER14_IRQHandler) for TIMER14_IRQHandler
    startup_gd32e23x.o(RESET) refers to bsptimer.o(.text.TIMER15_IRQHandler) for TIMER15_IRQHandler
    startup_gd32e23x.o(RESET) refers to bsptimer.o(.text.TIMER16_IRQHandler) for TIMER16_IRQHandler
    startup_gd32e23x.o(RESET) refers to bspi2c.o(.text.I2C0_EV_IRQHandler) for I2C0_EV_IRQHandler
    startup_gd32e23x.o(RESET) refers to bspi2c.o(.text.I2C1_EV_IRQHandler) for I2C1_EV_IRQHandler
    startup_gd32e23x.o(RESET) refers to bspuart.o(.text.USART0_IRQHandler) for USART0_IRQHandler
    startup_gd32e23x.o(RESET) refers to bspuart.o(.text.USART1_IRQHandler) for USART1_IRQHandler
    startup_gd32e23x.o(RESET) refers to bspi2c.o(.text.I2C0_ER_IRQHandler) for I2C0_ER_IRQHandler
==============================================================================

Removing Unused input sections from the image.

    Removing startup_gd32e23x.o(HEAP), (0 bytes).
    Removing system_gd32e23x.o(.text), (0 bytes).
    Removing system_gd32e23x.o(.ARM.exidx.text.SystemInit), (8 bytes).
    Removing system_gd32e23x.o(.text.SystemCoreClockUpdate), (124 bytes).
    Removing system_gd32e23x.o(.ARM.exidx.text.SystemCoreClockUpdate), (8 bytes).
    Removing gd32e23x_adc.o(.text), (0 bytes).
    Removing gd32e23x_adc.o(.text.adc_deinit), (28 bytes).
    Removing gd32e23x_adc.o(.ARM.exidx.text.adc_deinit), (8 bytes).
    Removing gd32e23x_adc.o(.text.adc_enable), (24 bytes).
    Removing gd32e23x_adc.o(.ARM.exidx.text.adc_enable), (8 bytes).
    Removing gd32e23x_adc.o(.text.adc_disable), (16 bytes).
    Removing gd32e23x_adc.o(.ARM.exidx.text.adc_disable), (8 bytes).
    Removing gd32e23x_adc.o(.text.adc_calibration_enable), (36 bytes).
    Removing gd32e23x_adc.o(.ARM.exidx.text.adc_calibration_enable), (8 bytes).
    Removing gd32e23x_adc.o(.text.adc_dma_mode_enable), (20 bytes).
    Removing gd32e23x_adc.o(.ARM.exidx.text.adc_dma_mode_enable), (8 bytes).
    Removing gd32e23x_adc.o(.text.adc_dma_mode_disable), (20 bytes).
    Removing gd32e23x_adc.o(.ARM.exidx.text.adc_dma_mode_disable), (8 bytes).
==============================================================================

Image Symbol Table

    Local Symbols

    Symbol Name                              Value     Ov Type        Size  Object(Section)

    ../clib/division.s                       0x00000000   Number         0  aeabi_sdivfast.o ABSOLUTE
    ../clib/division.s                       0x00000000   Number         0  aeabi_sdivfast_div0.o ABSOLUTE
    ../clib/microlib/division.c              0x00000000   Number         0  uidiv.o ABSOLUTE
    ../clib/microlib/division.c              0x00000000   Number         0  uldiv.o ABSOLUTE
    ../clib/microlib/division.c              0x00000000   Number         0  uidiv_div0.o ABSOLUTE
    ../clib/microlib/division.c              0x00000000   Number         0  idiv_div0.o ABSOLUTE
    ../clib/microlib/division.c              0x00000000   Number         0  idiv0.o ABSOLUTE
    ../clib/microlib/init/entry.s            0x00000000   Number         0  entry.o ABSOLUTE
    ../clib/microlib/init/entry.s            0x00000000   Number         0  entry2.o ABSOLUTE
    ../clib/microlib/init/entry.s            0x00000000   Number         0  entry5.o ABSOLUTE
    ../clib/microlib/init/entry.s            0x00000000   Number         0  entry7a.o ABSOLUTE
    ../clib/microlib/init/entry.s            0x00000000   Number         0  entry7b.o ABSOLUTE
    ../clib/microlib/init/entry.s            0x00000000   Number         0  entry8a.o ABSOLUTE
    ../clib/microlib/init/entry.s            0x00000000   Number         0  entry8b.o ABSOLUTE
    ../clib/microlib/init/entry.s            0x00000000   Number         0  entry9a.o ABSOLUTE
    ../clib/microlib/init/entry.s            0x00000000   Number         0  entry9b.o ABSOLUTE
    ../clib/microlib/init/entry.s            0x00000000   Number         0  entry10a.o ABSOLUTE
    ../clib/microlib/init/entry.s            0x00000000   Number         0  entry10b.o ABSOLUTE
    ../clib/microlib/init/entry.s            0x00000000   Number         0  entry11a.o ABSOLUTE
    ../clib/microlib/init/entry.s            0x00000000   Number         0  entry11b.o ABSOLUTE
    ../clib/microlib/longlong.c              0x00000000   Number         0  llushr.o ABSOLUTE
    ../clib/microlib/longlong.c              0x00000000   Number         0  llshl.o ABSOLUTE
    ../clib/microlib/longlong.c              0x00000000   Number         0  llsshr.o ABSOLUTE
    ../clib/microlib/printf/printf.c         0x00000000   Number         0  printfb.o ABSOLUTE
    ../clib/microlib/printf/printf.c         0x00000000   Number         0  printf0.o ABSOLUTE
    ../clib/microlib/printf/printf.c         0x00000000   Number         0  printf1.o ABSOLUTE
    ../clib/microlib/printf/printf.c         0x00000000   Number         0  printf2.o ABSOLUTE
    ../clib/microlib/printf/printf.c         0x00000000   Number         0  printf3.o ABSOLUTE
    ../clib/microlib/printf/printf.c         0x00000000   Number         0  printf4.o ABSOLUTE
    ../clib/microlib/printf/printf.c         0x00000000   Number         0  printf5.o ABSOLUTE
    ../clib/microlib/printf/printf.c         0x00000000   Number         0  printf6.o ABSOLUTE
    ../clib/microlib/printf/printf.c         0x00000000   Number         0  printf7.o ABSOLUTE
    ../clib/microlib/printf/printf.c         0x00000000   Number         0  printf8.o ABSOLUTE
    ../clib/microlib/printf/printf.c         0x00000000   Number         0  printfa.o ABSOLUTE
    ../clib/microlib/printf/stubs.s          0x00000000   Number         0  printfstubs.o ABSOLUTE
    ../clib/microlib/stdio/puts.c            0x00000000   Number         0  puts.o ABSOLUTE
    ../clib/microlib/stdio/puts.c            0x00000000   Number         0  puts_e.o ABSOLUTE
    ../clib/microlib/stdio/streams.c         0x00000000   Number         0  stdout.o ABSOLUTE
    ../clib/microlib/string/memcpy.c         0x00000000   Number         0  memcpya.o ABSOLUTE
    ../clib/microlib/string/memcpy.c         0x00000000   Number         0  memcpyb.o ABSOLUTE
    ../clib/microlib/string/memset.c         0x00000000   Number         0  memseta.o ABSOLUTE
    ../clib/microlib/stubs.s                 0x00000000   Number         0  iusefp.o ABSOLUTE
    ../fplib/microlib/fpadd.c                0x00000000   Number         0  dadd.o ABSOLUTE
    ../fplib/microlib/fpdiv.c                0x00000000   Number         0  ddiv.o ABSOLUTE
    ../fplib/microlib/fpepilogue.c           0x00000000   Number         0  fepilogue.o ABSOLUTE
    ../fplib/microlib/fpepilogue.c           0x00000000   Number         0  depilogue.o ABSOLUTE
    ../fplib/microlib/fpfix.c                0x00000000   Number         0  ffixui.o ABSOLUTE
    ../fplib/microlib/fpfix.c                0x00000000   Number         0  dfixi.o ABSOLUTE
    ../fplib/microlib/fpfix.c                0x00000000   Number         0  dfixul.o ABSOLUTE
    ../fplib/microlib/fpflt.c                0x00000000   Number         0  ffltui.o ABSOLUTE
    ../fplib/microlib/fpflt.c                0x00000000   Number         0  dflti.o ABSOLUTE
    ../fplib/microlib/fpflt.c                0x00000000   Number         0  dfltui.o ABSOLUTE
    ../fplib/microlib/fpmul.c                0x00000000   Number         0  fmul.o ABSOLUTE
    ../fplib/microlib/fpmul.c                0x00000000   Number         0  dmul.o ABSOLUTE
    ..\GD32E23x\Startup\startup_gd32e23x.s   0x00000000   Number         0  startup_gd32e23x.o ABSOLUTE
    arithmetic.c                             0x00000000   Number         0  arithmetic.o ABSOLUTE
    bootloader.c                             0x00000000   Number         0  bootloader.o ABSOLUTE
    bspADC.c                                 0x00000000   Number         0  bspadc.o ABSOLUTE
    bspBase.c                                0x00000000   Number         0  bspbase.o ABSOLUTE
    bspDma.c                                 0x00000000   Number         0  bspdma.o ABSOLUTE
    bspFMC.c                                 0x00000000   Number         0  bspfmc.o ABSOLUTE
    bspGPIO.c                                0x00000000   Number         0  bspgpio.o ABSOLUTE
    bspI2C.c                                 0x00000000   Number         0  bspi2c.o ABSOLUTE
    bspPWM.c                                 0x00000000   Number         0  bsppwm.o ABSOLUTE
    bspSPI.c                                 0x00000000   Number         0  bspspi.o ABSOLUTE
    bspTimer.c                               0x00000000   Number         0  bsptimer.o ABSOLUTE
    bspUART.c                                0x00000000   Number         0  bspuart.o ABSOLUTE
    cdrcmple.s                               0x00000000   Number         0  cdrcmple.o ABSOLUTE
    dc.s                                     0x00000000   Number         0  dc.o ABSOLUTE
    gd32e23x_adc.c                           0x00000000   Number         0  gd32e23x_adc.o ABSOLUTE
    gd32e23x_cmp.c                           0x00000000   Number         0  gd32e23x_cmp.o ABSOLUTE
    gd32e23x_crc.c                           0x00000000   Number         0  gd32e23x_crc.o ABSOLUTE
    gd32e23x_dbg.c                           0x00000000   Number         0  gd32e23x_dbg.o ABSOLUTE
    gd32e23x_dma.c                           0x00000000   Number         0  gd32e23x_dma.o ABSOLUTE
    gd32e23x_exti.c                          0x00000000   Number         0  gd32e23x_exti.o ABSOLUTE
    gd32e23x_fmc.c                           0x00000000   Number         0  gd32e23x_fmc.o ABSOLUTE
    gd32e23x_fwdgt.c                         0x00000000   Number         0  gd32e23x_fwdgt.o ABSOLUTE
    gd32e23x_gpio.c                          0x00000000   Number         0  gd32e23x_gpio.o ABSOLUTE
    gd32e23x_i2c.c                           0x00000000   Number         0  gd32e23x_i2c.o ABSOLUTE
    gd32e23x_misc.c                          0x00000000   Number         0  gd32e23x_misc.o ABSOLUTE
    gd32e23x_pmu.c                           0x00000000   Number         0  gd32e23x_pmu.o ABSOLUTE
    gd32e23x_rcu.c                           0x00000000   Number         0  gd32e23x_rcu.o ABSOLUTE
    gd32e23x_rtc.c                           0x00000000   Number         0  gd32e23x_rtc.o ABSOLUTE
    gd32e23x_spi.c                           0x00000000   Number         0  gd32e23x_spi.o ABSOLUTE
    gd32e23x_syscfg.c                        0x00000000   Number         0  gd32e23x_syscfg.o ABSOLUTE
    gd32e23x_timer.c                         0x00000000   Number         0  gd32e23x_timer.o ABSOLUTE
    gd32e23x_usart.c                         0x00000000   Number         0  gd32e23x_usart.o ABSOLUTE
    gd32e23x_wwdgt.c                         0x00000000   Number         0  gd32e23x_wwdgt.o ABSOLUTE
    handlers.s                               0x00000000   Number         0  handlers.o ABSOLUTE
    init.s                                   0x00000000   Number         0  init.o ABSOLUTE
    loadMain.c                               0x00000000   Number         0  loadmain.o ABSOLUTE
    loadProtocol.c                           0x00000000   Number         0  loadprotocol.o ABSOLUTE
    system_gd32e23x.c                        0x00000000   Number         0  system_gd32e23x.o ABSOLUTE
    RESET                                    0x08000000   Section      204  startup_gd32e23x.o(RESET)
    .ARM.Collect$$$$00000000                 0x080000cc   Section        0  entry.o(.ARM.Collect$$$$00000000)
    .ARM.Collect$$$$00000001                 0x080000cc   Section        4  entry2.o(.ARM.Collect$$$$00000001)
    .ARM.Collect$$$$00000004                 0x080000d0   Section        4  entry5.o(.ARM.Collect$$$$00000004)
    .ARM.Collect$$$$00000008                 0x080000d4   Section        0  entry7b.o(.ARM.Collect$$$$00000008)
    .ARM.Collect$$$$0000000A                 0x080000d4   Section        0  entry8b.o(.ARM.Collect$$$$0000000A)
    .ARM.Collect$$$$0000000B                 0x080000d4   Section        8  entry9a.o(.ARM.Collect$$$$0000000B)
    __lit__00000000                          0x080000dc   Data           4  entry2.o(.ARM.Collect$$$$00002712)
    .ARM.Collect$$$$0000000D                 0x080000dc   Section        0  entry10a.o(.ARM.Collect$$$$0000000D)
    .ARM.Collect$$$$0000000F                 0x080000dc   Section        0  entry11a.o(.ARM.Collect$$$$0000000F)
    .ARM.Collect$$$$00002712                 0x080000dc   Section        4  entry2.o(.ARM.Collect$$$$00002712)
    .text                                    0x080000e0   Section       28  startup_gd32e23x.o(.text)
    .text                                    0x080000fc   Section        0  memcpya.o(.text)
    .text                                    0x08000120   Section        0  memseta.o(.text)
    .text                                    0x08000144   Section        0  uldiv.o(.text)
    .text                                    0x080001a4   Section        0  llushr.o(.text)
    .text                                    0x080001c8   Section       36  init.o(.text)
    .text                                    0x080001ec   Section        0  llshl.o(.text)
    [Anonymous Symbol]                       0x0800020c   Section        0  bspdma.o(.text.DMA_Channel0_IRQHandler)
    [Anonymous Symbol]                       0x08000288   Section        0  bspdma.o(.text.DMA_Channel1_2_IRQHandler)
    [Anonymous Symbol]                       0x0800036c   Section        0  bspdma.o(.text.DMA_Channel3_4_IRQHandler)
    __arm_cp.7_0                             0x08000450   Number         4  bspdma.o(.text.DMA_Channel3_4_IRQHandler)
    [Anonymous Symbol]                       0x08000454   Section        0  loadmain.o(.text.HardFault_Handler)
    [Anonymous Symbol]                       0x08000484   Section        0  bspi2c.o(.text.I2C0_ER_IRQHandler)
    [Anonymous Symbol]                       0x0800055c   Section        0  bspi2c.o(.text.I2C0_EV_IRQHandler)
    __arm_cp.14_0                            0x08000728   Number         4  bspi2c.o(.text.I2C0_EV_IRQHandler)
    __arm_cp.14_1                            0x0800072c   Number         4  bspi2c.o(.text.I2C0_EV_IRQHandler)
    __arm_cp.14_2                            0x08000730   Number         4  bspi2c.o(.text.I2C0_EV_IRQHandler)
    __arm_cp.14_3                            0x08000734   Number         4  bspi2c.o(.text.I2C0_EV_IRQHandler)
    __arm_cp.14_4                            0x08000738   Number         4  bspi2c.o(.text.I2C0_EV_IRQHandler)
    __arm_cp.14_5                            0x0800073c   Number         4  bspi2c.o(.text.I2C0_EV_IRQHandler)
    [Anonymous Symbol]                       0x08000740   Section        0  bspi2c.o(.text.I2C1_ER_IRQHandler)
    __arm_cp.17_1                            0x0800080c   Number         4  bspi2c.o(.text.I2C1_ER_IRQHandler)
    __arm_cp.17_3                            0x08000810   Number         4  bspi2c.o(.text.I2C1_ER_IRQHandler)
    __arm_cp.17_4                            0x08000814   Number         4  bspi2c.o(.text.I2C1_ER_IRQHandler)
    __arm_cp.17_5                            0x08000818   Number         4  bspi2c.o(.text.I2C1_ER_IRQHandler)
    __arm_cp.17_6                            0x0800081c   Number         4  bspi2c.o(.text.I2C1_ER_IRQHandler)
    __arm_cp.17_7                            0x08000820   Number         4  bspi2c.o(.text.I2C1_ER_IRQHandler)
    __arm_cp.17_8                            0x08000824   Number         4  bspi2c.o(.text.I2C1_ER_IRQHandler)
    [Anonymous Symbol]                       0x08000828   Section        0  bspi2c.o(.text.I2C1_EV_IRQHandler)
    __arm_cp.16_0                            0x080009f4   Number         4  bspi2c.o(.text.I2C1_EV_IRQHandler)
    __arm_cp.16_1                            0x080009f8   Number         4  bspi2c.o(.text.I2C1_EV_IRQHandler)
    __arm_cp.16_2                            0x080009fc   Number         4  bspi2c.o(.text.I2C1_EV_IRQHandler)
    __arm_cp.16_3                            0x08000a00   Number         4  bspi2c.o(.text.I2C1_EV_IRQHandler)
    __arm_cp.16_4                            0x08000a04   Number         4  bspi2c.o(.text.I2C1_EV_IRQHandler)
    __arm_cp.16_5                            0x08000a08   Number         4  bspi2c.o(.text.I2C1_EV_IRQHandler)
    __arm_cp.16_6                            0x08000a0c   Number         4  bspi2c.o(.text.I2C1_EV_IRQHandler)
    __arm_cp.16_7                            0x08000a10   Number         4  bspi2c.o(.text.I2C1_EV_IRQHandler)
    __arm_cp.16_8                            0x08000a14   Number         4  bspi2c.o(.text.I2C1_EV_IRQHandler)
    [Anonymous Symbol]                       0x08000a18   Section        0  loadmain.o(.text.SysTick_Handler)
    __arm_cp.6_0                             0x08000a3c   Number         4  loadmain.o(.text.SysTick_Handler)
    __arm_cp.6_1                             0x08000a40   Number         4  loadmain.o(.text.SysTick_Handler)
    __arm_cp.6_2                             0x08000a44   Number         4  loadmain.o(.text.SysTick_Handler)
    __arm_cp.6_3                             0x08000a48   Number         4  loadmain.o(.text.SysTick_Handler)
    [Anonymous Symbol]                       0x08000a4c   Section        0  system_gd32e23x.o(.text.SystemInit)
    __arm_cp.0_0                             0x08000b18   Number         4  system_gd32e23x.o(.text.SystemInit)
    __arm_cp.0_1                             0x08000b1c   Number         4  system_gd32e23x.o(.text.SystemInit)
    __arm_cp.0_2                             0x08000b20   Number         4  system_gd32e23x.o(.text.SystemInit)
    __arm_cp.0_3                             0x08000b24   Number         4  system_gd32e23x.o(.text.SystemInit)
    __arm_cp.0_4                             0x08000b28   Number         4  system_gd32e23x.o(.text.SystemInit)
    __arm_cp.0_5                             0x08000b2c   Number         4  system_gd32e23x.o(.text.SystemInit)
    __arm_cp.0_6                             0x08000b30   Number         4  system_gd32e23x.o(.text.SystemInit)
    __arm_cp.0_7                             0x08000b34   Number         4  system_gd32e23x.o(.text.SystemInit)
    [Anonymous Symbol]                       0x08000b38   Section        0  bsptimer.o(.text.TIMER13_IRQHandler)
    __arm_cp.4_0                             0x08000b60   Number         4  bsptimer.o(.text.TIMER13_IRQHandler)
    [Anonymous Symbol]                       0x08000b64   Section        0  bsptimer.o(.text.TIMER14_IRQHandler)
    __arm_cp.5_0                             0x08000b8c   Number         4  bsptimer.o(.text.TIMER14_IRQHandler)
    [Anonymous Symbol]                       0x08000b90   Section        0  bsptimer.o(.text.TIMER15_IRQHandler)
    __arm_cp.6_0                             0x08000bb8   Number         4  bsptimer.o(.text.TIMER15_IRQHandler)
    [Anonymous Symbol]                       0x08000bbc   Section        0  bsptimer.o(.text.TIMER16_IRQHandler)
    __arm_cp.7_0                             0x08000be4   Number         4  bsptimer.o(.text.TIMER16_IRQHandler)
    [Anonymous Symbol]                       0x08000be8   Section        0  bsptimer.o(.text.TIMER2_IRQHandler)
    __arm_cp.2_0                             0x08000c10   Number         4  bsptimer.o(.text.TIMER2_IRQHandler)
    [Anonymous Symbol]                       0x08000c14   Section        0  bsptimer.o(.text.TIMER5_IRQHandler)
    __arm_cp.3_0                             0x08000c3c   Number         4  bsptimer.o(.text.TIMER5_IRQHandler)
    __arm_cp.3_1                             0x08000c40   Number         4  bsptimer.o(.text.TIMER5_IRQHandler)
    [Anonymous Symbol]                       0x08000c44   Section        0  bspuart.o(.text.USART0_IRQHandler)
    __arm_cp.6_0                             0x08000cc8   Number         4  bspuart.o(.text.USART0_IRQHandler)
    __arm_cp.6_2                             0x08000ccc   Number         4  bspuart.o(.text.USART0_IRQHandler)
    __arm_cp.6_3                             0x08000cd0   Number         4  bspuart.o(.text.USART0_IRQHandler)
    [Anonymous Symbol]                       0x08000cd4   Section        0  bspuart.o(.text.USART1_IRQHandler)
    __arm_cp.7_1                             0x08000d0c   Number         4  bspuart.o(.text.USART1_IRQHandler)
    __arm_cp.7_2                             0x08000d10   Number         4  bspuart.o(.text.USART1_IRQHandler)
    [Anonymous Symbol]                       0x08000d14   Section        0  bspbase.o(.text.bspDelayMs)
    __arm_cp.0_0                             0x08000d28   Number         4  bspbase.o(.text.bspDelayMs)
    defaultUartCallback                      0x08000d2d   Thumb Code     2  bspuart.o(.text.defaultUartCallback)
    [Anonymous Symbol]                       0x08000d2c   Section        0  bspuart.o(.text.defaultUartCallback)
    [Anonymous Symbol]                       0x08000d30   Section        0  gd32e23x_dma.o(.text.dma_channel_disable)
    __arm_cp.3_0                             0x08000d40   Number         4  gd32e23x_dma.o(.text.dma_channel_disable)
    [Anonymous Symbol]                       0x08000d44   Section        0  gd32e23x_dma.o(.text.dma_deinit)
    [Anonymous Symbol]                       0x08000d70   Section        0  gd32e23x_dma.o(.text.dma_interrupt_flag_clear)
    __arm_cp.24_0                            0x08000d80   Number         4  gd32e23x_dma.o(.text.dma_interrupt_flag_clear)
    [Anonymous Symbol]                       0x08000d84   Section        0  gd32e23x_dma.o(.text.dma_interrupt_flag_get)
    __arm_cp.23_0                            0x08000dc4   Number         4  gd32e23x_dma.o(.text.dma_interrupt_flag_get)
    [Anonymous Symbol]                       0x08000dc8   Section        0  bspfmc.o(.text.fmcErasePages)
    [Anonymous Symbol]                       0x08000e18   Section        0  bspfmc.o(.text.fmcProgram)
    __arm_cp.1_0                             0x08000eb0   Number         4  bspfmc.o(.text.fmcProgram)
    [Anonymous Symbol]                       0x08000eb4   Section        0  gd32e23x_fmc.o(.text.fmc_flag_clear)
    [Anonymous Symbol]                       0x08000ebc   Section        0  gd32e23x_fmc.o(.text.fmc_flag_get)
    [Anonymous Symbol]                       0x08000ecc   Section        0  gd32e23x_fmc.o(.text.fmc_lock)
    __arm_cp.1_0                             0x08000ed8   Number         4  gd32e23x_fmc.o(.text.fmc_lock)
    [Anonymous Symbol]                       0x08000edc   Section        0  gd32e23x_fmc.o(.text.fmc_page_erase)
    [Anonymous Symbol]                       0x08000f40   Section        0  gd32e23x_fmc.o(.text.fmc_unlock)
    __arm_cp.0_0                             0x08000f54   Number         4  gd32e23x_fmc.o(.text.fmc_unlock)
    __arm_cp.0_1                             0x08000f58   Number         4  gd32e23x_fmc.o(.text.fmc_unlock)
    __arm_cp.0_2                             0x08000f5c   Number         4  gd32e23x_fmc.o(.text.fmc_unlock)
    [Anonymous Symbol]                       0x08000f60   Section        0  gd32e23x_fmc.o(.text.fmc_word_program)
    __arm_cp.9_0                             0x08000fbc   Number         4  gd32e23x_fmc.o(.text.fmc_word_program)
    __arm_cp.9_1                             0x08000fc0   Number         4  gd32e23x_fmc.o(.text.fmc_word_program)
    [Anonymous Symbol]                       0x08000fc4   Section        0  bspuart.o(.text.fputc)
    __arm_cp.9_0                             0x08000fe4   Number         4  bspuart.o(.text.fputc)
    __arm_cp.9_1                             0x08000fe8   Number         4  bspuart.o(.text.fputc)
    [Anonymous Symbol]                       0x08000fec   Section        0  gd32e23x_fwdgt.o(.text.fwdgt_config)
    __arm_cp.7_1                             0x0800102c   Number         4  gd32e23x_fwdgt.o(.text.fwdgt_config)
    __arm_cp.7_2                             0x08001030   Number         4  gd32e23x_fwdgt.o(.text.fwdgt_config)
    __arm_cp.7_3                             0x08001034   Number         4  gd32e23x_fwdgt.o(.text.fwdgt_config)
    [Anonymous Symbol]                       0x08001038   Section        0  gd32e23x_fwdgt.o(.text.fwdgt_counter_reload)
    __arm_cp.6_1                             0x08001040   Number         4  gd32e23x_fwdgt.o(.text.fwdgt_counter_reload)
    [Anonymous Symbol]                       0x08001044   Section        0  gd32e23x_fwdgt.o(.text.fwdgt_enable)
    __arm_cp.2_0                             0x0800104c   Number         4  gd32e23x_fwdgt.o(.text.fwdgt_enable)
    __arm_cp.2_1                             0x08001050   Number         4  gd32e23x_fwdgt.o(.text.fwdgt_enable)
    [Anonymous Symbol]                       0x08001054   Section        0  bspgpio.o(.text.gpioConfig)
    [Anonymous Symbol]                       0x08001088   Section        0  gd32e23x_gpio.o(.text.gpio_af_set)
    __arm_cp.11_0                            0x0800116c   Number         4  gd32e23x_gpio.o(.text.gpio_af_set)
    __arm_cp.11_1                            0x08001170   Number         4  gd32e23x_gpio.o(.text.gpio_af_set)
    __arm_cp.11_2                            0x08001174   Number         4  gd32e23x_gpio.o(.text.gpio_af_set)
    __arm_cp.11_3                            0x08001178   Number         4  gd32e23x_gpio.o(.text.gpio_af_set)
    __arm_cp.11_4                            0x0800117c   Number         4  gd32e23x_gpio.o(.text.gpio_af_set)
    __arm_cp.11_5                            0x08001180   Number         4  gd32e23x_gpio.o(.text.gpio_af_set)
    [Anonymous Symbol]                       0x08001184   Section        0  gd32e23x_gpio.o(.text.gpio_bit_toggle)
    [Anonymous Symbol]                       0x08001188   Section        0  gd32e23x_gpio.o(.text.gpio_bit_write)
    [Anonymous Symbol]                       0x08001196   Section        0  gd32e23x_gpio.o(.text.gpio_mode_set)
    [Anonymous Symbol]                       0x080011d8   Section        0  gd32e23x_gpio.o(.text.gpio_output_options_set)
    [Anonymous Symbol]                       0x08001220   Section        0  bspi2c.o(.text.i2cInit)
    __arm_cp.0_0                             0x080012e0   Number         4  bspi2c.o(.text.i2cInit)
    [Anonymous Symbol]                       0x080012e4   Section        0  bspi2c.o(.text.i2cSlaveRead)
    __arm_cp.13_0                            0x080014e8   Number         4  bspi2c.o(.text.i2cSlaveRead)
    __arm_cp.13_1                            0x080014ec   Number         4  bspi2c.o(.text.i2cSlaveRead)
    __arm_cp.13_2                            0x080014f0   Number         4  bspi2c.o(.text.i2cSlaveRead)
    __arm_cp.13_4                            0x08001500   Number         4  bspi2c.o(.text.i2cSlaveRead)
    __arm_cp.13_5                            0x08001504   Number         4  bspi2c.o(.text.i2cSlaveRead)
    __arm_cp.13_6                            0x08001508   Number         4  bspi2c.o(.text.i2cSlaveRead)
    __arm_cp.13_7                            0x0800150c   Number         4  bspi2c.o(.text.i2cSlaveRead)
    __arm_cp.13_8                            0x08001510   Number         4  bspi2c.o(.text.i2cSlaveRead)
    __arm_cp.13_9                            0x08001514   Number         4  bspi2c.o(.text.i2cSlaveRead)
    __arm_cp.13_10                           0x08001518   Number         4  bspi2c.o(.text.i2cSlaveRead)
    __arm_cp.13_11                           0x0800151c   Number         4  bspi2c.o(.text.i2cSlaveRead)
    [Anonymous Symbol]                       0x0800152c   Section        0  bspi2c.o(.text.i2cSlaveWrite)
    __arm_cp.12_0                            0x08001758   Number         4  bspi2c.o(.text.i2cSlaveWrite)
    __arm_cp.12_1                            0x0800175c   Number         4  bspi2c.o(.text.i2cSlaveWrite)
    __arm_cp.12_2                            0x08001760   Number         4  bspi2c.o(.text.i2cSlaveWrite)
    __arm_cp.12_3                            0x08001764   Number         4  bspi2c.o(.text.i2cSlaveWrite)
    __arm_cp.12_4                            0x08001768   Number         4  bspi2c.o(.text.i2cSlaveWrite)
    __arm_cp.12_5                            0x0800176c   Number         4  bspi2c.o(.text.i2cSlaveWrite)
    __arm_cp.12_6                            0x08001770   Number         4  bspi2c.o(.text.i2cSlaveWrite)
    __arm_cp.12_7                            0x08001774   Number         4  bspi2c.o(.text.i2cSlaveWrite)
    __arm_cp.12_8                            0x08001778   Number         4  bspi2c.o(.text.i2cSlaveWrite)
    __arm_cp.12_10                           0x08001788   Number         4  bspi2c.o(.text.i2cSlaveWrite)
    __arm_cp.12_11                           0x0800178c   Number         4  bspi2c.o(.text.i2cSlaveWrite)
    [Anonymous Symbol]                       0x0800179c   Section        0  gd32e23x_i2c.o(.text.i2c_ack_config)
    [Anonymous Symbol]                       0x080017b2   Section        0  gd32e23x_i2c.o(.text.i2c_ackpos_config)
    [Anonymous Symbol]                       0x080017c8   Section        0  gd32e23x_i2c.o(.text.i2c_clock_config)
    __arm_cp.1_0                             0x080018d4   Number         4  gd32e23x_i2c.o(.text.i2c_clock_config)
    __arm_cp.1_1                             0x080018d8   Number         4  gd32e23x_i2c.o(.text.i2c_clock_config)
    __arm_cp.1_2                             0x080018dc   Number         4  gd32e23x_i2c.o(.text.i2c_clock_config)
    __arm_cp.1_3                             0x080018e0   Number         4  gd32e23x_i2c.o(.text.i2c_clock_config)
    __arm_cp.1_4                             0x080018e4   Number         4  gd32e23x_i2c.o(.text.i2c_clock_config)
    __arm_cp.1_5                             0x080018e8   Number         4  gd32e23x_i2c.o(.text.i2c_clock_config)
    __arm_cp.1_6                             0x080018ec   Number         4  gd32e23x_i2c.o(.text.i2c_clock_config)
    [Anonymous Symbol]                       0x080018f0   Section        0  gd32e23x_i2c.o(.text.i2c_data_receive)
    [Anonymous Symbol]                       0x080018f6   Section        0  gd32e23x_i2c.o(.text.i2c_data_transmit)
    [Anonymous Symbol]                       0x080018fc   Section        0  gd32e23x_i2c.o(.text.i2c_deinit)
    __arm_cp.0_0                             0x08001924   Number         4  gd32e23x_i2c.o(.text.i2c_deinit)
    __arm_cp.0_1                             0x08001928   Number         4  gd32e23x_i2c.o(.text.i2c_deinit)
    __arm_cp.0_2                             0x0800192c   Number         4  gd32e23x_i2c.o(.text.i2c_deinit)
    [Anonymous Symbol]                       0x08001930   Section        0  gd32e23x_i2c.o(.text.i2c_enable)
    [Anonymous Symbol]                       0x0800193a   Section        0  gd32e23x_i2c.o(.text.i2c_flag_get)
    [Anonymous Symbol]                       0x0800194a   Section        0  gd32e23x_i2c.o(.text.i2c_interrupt_disable)
    [Anonymous Symbol]                       0x0800195c   Section        0  gd32e23x_i2c.o(.text.i2c_interrupt_enable)
    [Anonymous Symbol]                       0x08001970   Section        0  gd32e23x_i2c.o(.text.i2c_interrupt_flag_clear)
    __arm_cp.34_0                            0x08001990   Number         4  gd32e23x_i2c.o(.text.i2c_interrupt_flag_clear)
    [Anonymous Symbol]                       0x08001994   Section        0  gd32e23x_i2c.o(.text.i2c_interrupt_flag_get)
    __arm_cp.33_1                            0x080019d8   Number         4  gd32e23x_i2c.o(.text.i2c_interrupt_flag_get)
    [Anonymous Symbol]                       0x080019dc   Section        0  gd32e23x_i2c.o(.text.i2c_master_addressing)
    [Anonymous Symbol]                       0x080019f0   Section        0  gd32e23x_i2c.o(.text.i2c_mode_addr_config)
    __arm_cp.2_0                             0x08001a08   Number         4  gd32e23x_i2c.o(.text.i2c_mode_addr_config)
    [Anonymous Symbol]                       0x08001a0c   Section        0  gd32e23x_i2c.o(.text.i2c_software_reset_config)
    [Anonymous Symbol]                       0x08001a1a   Section        0  gd32e23x_i2c.o(.text.i2c_stop_on_bus)
    [Anonymous Symbol]                       0x08001a28   Section        0  bootloader.o(.text.jumpToApplication)
    __arm_cp.0_0                             0x08001a80   Number         4  bootloader.o(.text.jumpToApplication)
    __arm_cp.0_2                             0x08001ab4   Number         4  bootloader.o(.text.jumpToApplication)
    __arm_cp.0_4                             0x08001ae8   Number         4  bootloader.o(.text.jumpToApplication)
    __arm_cp.0_5                             0x08001aec   Number         4  bootloader.o(.text.jumpToApplication)
    [Anonymous Symbol]                       0x08001af0   Section        0  bootloader.o(.text.jumpToBootloader)
    __arm_cp.1_0                             0x08001b04   Number         4  bootloader.o(.text.jumpToBootloader)
    __arm_cp.1_1                             0x08001b08   Number         4  bootloader.o(.text.jumpToBootloader)
    [Anonymous Symbol]                       0x08001b0c   Section        0  loadmain.o(.text.main)
    __arm_cp.5_0                             0x08001c60   Number         4  loadmain.o(.text.main)
    __arm_cp.5_3                             0x08001c9c   Number         4  loadmain.o(.text.main)
    __arm_cp.5_4                             0x08001ca0   Number         4  loadmain.o(.text.main)
    __arm_cp.5_5                             0x08001ca4   Number         4  loadmain.o(.text.main)
    __arm_cp.5_6                             0x08001ca8   Number         4  loadmain.o(.text.main)
    __arm_cp.5_7                             0x08001cac   Number         4  loadmain.o(.text.main)
    __arm_cp.5_8                             0x08001cb0   Number         4  loadmain.o(.text.main)
    __arm_cp.5_9                             0x08001cb4   Number         4  loadmain.o(.text.main)
    __arm_cp.5_10                            0x08001cb8   Number         4  loadmain.o(.text.main)
    __arm_cp.5_11                            0x08001cbc   Number         4  loadmain.o(.text.main)
    __arm_cp.5_13                            0x08001ccc   Number         4  loadmain.o(.text.main)
    [Anonymous Symbol]                       0x08001cdc   Section        0  gd32e23x_misc.o(.text.nvic_irq_enable)
    __arm_cp.0_0                             0x08001d38   Number         4  gd32e23x_misc.o(.text.nvic_irq_enable)
    __arm_cp.0_1                             0x08001d3c   Number         4  gd32e23x_misc.o(.text.nvic_irq_enable)
    __arm_cp.0_2                             0x08001d40   Number         4  gd32e23x_misc.o(.text.nvic_irq_enable)
    [Anonymous Symbol]                       0x08001d44   Section        0  gd32e23x_misc.o(.text.nvic_vector_table_set)
    __arm_cp.3_0                             0x08001d50   Number         4  gd32e23x_misc.o(.text.nvic_vector_table_set)
    __arm_cp.3_1                             0x08001d54   Number         4  gd32e23x_misc.o(.text.nvic_vector_table_set)
    proReceCallback                          0x08001d59   Thumb Code    24  loadprotocol.o(.text.proReceCallback)
    [Anonymous Symbol]                       0x08001d58   Section        0  loadprotocol.o(.text.proReceCallback)
    proSendCallback                          0x08001d71   Thumb Code    36  loadprotocol.o(.text.proSendCallback)
    [Anonymous Symbol]                       0x08001d70   Section        0  loadprotocol.o(.text.proSendCallback)
    [Anonymous Symbol]                       0x08001d94   Section        0  loadprotocol.o(.text.protocolInit)
    __arm_cp.5_3                             0x08001ddc   Number         4  loadprotocol.o(.text.protocolInit)
    __arm_cp.5_4                             0x08001de0   Number         4  loadprotocol.o(.text.protocolInit)
    __arm_cp.5_5                             0x08001de4   Number         4  loadprotocol.o(.text.protocolInit)
    [Anonymous Symbol]                       0x08001de8   Section        0  loadprotocol.o(.text.protocolPackage)
    __arm_cp.0_0                             0x08001e74   Number         4  loadprotocol.o(.text.protocolPackage)
    __arm_cp.0_1                             0x08001e78   Number         4  loadprotocol.o(.text.protocolPackage)
    __arm_cp.0_3                             0x08001e94   Number         4  loadprotocol.o(.text.protocolPackage)
    __arm_cp.0_4                             0x08001e98   Number         4  loadprotocol.o(.text.protocolPackage)
    [Anonymous Symbol]                       0x08001e9c   Section        0  loadprotocol.o(.text.protocolProcessing)
    __arm_cp.4_0                             0x08002104   Number         4  loadprotocol.o(.text.protocolProcessing)
    __arm_cp.4_4                             0x08002144   Number         4  loadprotocol.o(.text.protocolProcessing)
    __arm_cp.4_8                             0x08002194   Number         4  loadprotocol.o(.text.protocolProcessing)
    __arm_cp.4_9                             0x08002198   Number         4  loadprotocol.o(.text.protocolProcessing)
    __arm_cp.4_10                            0x0800219c   Number         4  loadprotocol.o(.text.protocolProcessing)
    __arm_cp.4_11                            0x080021a0   Number         4  loadprotocol.o(.text.protocolProcessing)
    __arm_cp.4_12                            0x080021a4   Number         4  loadprotocol.o(.text.protocolProcessing)
    __arm_cp.4_14                            0x080021b8   Number         4  loadprotocol.o(.text.protocolProcessing)
    __arm_cp.4_15                            0x080021bc   Number         4  loadprotocol.o(.text.protocolProcessing)
    __arm_cp.4_16                            0x080021c0   Number         4  loadprotocol.o(.text.protocolProcessing)
    __arm_cp.4_17                            0x080021c4   Number         4  loadprotocol.o(.text.protocolProcessing)
    __arm_cp.4_18                            0x080021c8   Number         4  loadprotocol.o(.text.protocolProcessing)
    [Anonymous Symbol]                       0x080021cc   Section        0  gd32e23x_rcu.o(.text.rcu_clock_freq_get)
    __arm_cp.38_0                            0x08002324   Number         4  gd32e23x_rcu.o(.text.rcu_clock_freq_get)
    __arm_cp.38_1                            0x08002328   Number         4  gd32e23x_rcu.o(.text.rcu_clock_freq_get)
    __arm_cp.38_2                            0x0800232c   Number         4  gd32e23x_rcu.o(.text.rcu_clock_freq_get)
    __arm_cp.38_4                            0x08002340   Number         4  gd32e23x_rcu.o(.text.rcu_clock_freq_get)
    __arm_cp.38_5                            0x08002344   Number         4  gd32e23x_rcu.o(.text.rcu_clock_freq_get)
    __arm_cp.38_6                            0x08002348   Number         4  gd32e23x_rcu.o(.text.rcu_clock_freq_get)
    [Anonymous Symbol]                       0x0800234c   Section        0  gd32e23x_rcu.o(.text.rcu_deinit)
    __arm_cp.0_0                             0x080023b0   Number         4  gd32e23x_rcu.o(.text.rcu_deinit)
    __arm_cp.0_1                             0x080023b4   Number         4  gd32e23x_rcu.o(.text.rcu_deinit)
    __arm_cp.0_2                             0x080023b8   Number         4  gd32e23x_rcu.o(.text.rcu_deinit)
    __arm_cp.0_3                             0x080023bc   Number         4  gd32e23x_rcu.o(.text.rcu_deinit)
    [Anonymous Symbol]                       0x080023c0   Section        0  gd32e23x_rcu.o(.text.rcu_osci_on)
    [Anonymous Symbol]                       0x080023d4   Section        0  gd32e23x_rcu.o(.text.rcu_osci_stab_wait)
    __arm_cp.27_0                            0x080024a8   Number         4  gd32e23x_rcu.o(.text.rcu_osci_stab_wait)
    __arm_cp.27_1                            0x080024ac   Number         4  gd32e23x_rcu.o(.text.rcu_osci_stab_wait)
    __arm_cp.27_3                            0x080024b0   Number         4  gd32e23x_rcu.o(.text.rcu_osci_stab_wait)
    __arm_cp.27_4                            0x080024b4   Number         4  gd32e23x_rcu.o(.text.rcu_osci_stab_wait)
    __arm_cp.27_5                            0x080024b8   Number         4  gd32e23x_rcu.o(.text.rcu_osci_stab_wait)
    [Anonymous Symbol]                       0x080024bc   Section        0  gd32e23x_rcu.o(.text.rcu_periph_clock_enable)
    [Anonymous Symbol]                       0x080024d0   Section        0  gd32e23x_rcu.o(.text.rcu_periph_reset_disable)
    [Anonymous Symbol]                       0x080024e4   Section        0  gd32e23x_rcu.o(.text.rcu_periph_reset_enable)
    __arm_cp.5_0                             0x080024f8   Number         4  gd32e23x_rcu.o(.text.rcu_periph_reset_enable)
    [Anonymous Symbol]                       0x080024fc   Section        0  loadprotocol.o(.text.requestStartUpdata)
    [Anonymous Symbol]                       0x08002530   Section        0  loadmain.o(.text.setWorkSta)
    __arm_cp.4_0                             0x08002578   Number         4  loadmain.o(.text.setWorkSta)
    __arm_cp.4_1                             0x0800257c   Number         4  loadmain.o(.text.setWorkSta)
    __arm_cp.4_2                             0x08002580   Number         4  loadmain.o(.text.setWorkSta)
    __arm_cp.4_3                             0x08002584   Number         4  loadmain.o(.text.setWorkSta)
    [Anonymous Symbol]                       0x08002588   Section        0  gd32e23x_timer.o(.text.timer_interrupt_flag_clear)
    [Anonymous Symbol]                       0x0800258e   Section        0  gd32e23x_timer.o(.text.timer_interrupt_flag_get)
    [Anonymous Symbol]                       0x080025a4   Section        0  bspuart.o(.text.uartInit)
    __arm_cp.3_1                             0x08002640   Number         4  bspuart.o(.text.uartInit)
    __arm_cp.3_2                             0x08002644   Number         4  bspuart.o(.text.uartInit)
    __arm_cp.3_3                             0x08002648   Number         4  bspuart.o(.text.uartInit)
    [Anonymous Symbol]                       0x0800264c   Section        0  arithmetic.o(.text.ucBufCheckSum)
    [Anonymous Symbol]                       0x08002660   Section        0  arithmetic.o(.text.ucBufCheckXor)
    [Anonymous Symbol]                       0x08002674   Section        0  gd32e23x_usart.o(.text.usart_baudrate_set)
    __arm_cp.1_2                             0x080026c0   Number         4  gd32e23x_usart.o(.text.usart_baudrate_set)
    [Anonymous Symbol]                       0x080026c4   Section        0  gd32e23x_usart.o(.text.usart_data_receive)
    [Anonymous Symbol]                       0x080026cc   Section        0  gd32e23x_usart.o(.text.usart_data_transmit)
    __arm_cp.18_0                            0x080026d4   Number         4  gd32e23x_usart.o(.text.usart_data_transmit)
    [Anonymous Symbol]                       0x080026d8   Section        0  gd32e23x_usart.o(.text.usart_deinit)
    __arm_cp.0_0                             0x08002700   Number         4  gd32e23x_usart.o(.text.usart_deinit)
    __arm_cp.0_1                             0x08002704   Number         4  gd32e23x_usart.o(.text.usart_deinit)
    __arm_cp.0_2                             0x08002708   Number         4  gd32e23x_usart.o(.text.usart_deinit)
    __arm_cp.0_3                             0x0800270c   Number         4  gd32e23x_usart.o(.text.usart_deinit)
    [Anonymous Symbol]                       0x08002710   Section        0  gd32e23x_usart.o(.text.usart_disable)
    [Anonymous Symbol]                       0x0800271a   Section        0  gd32e23x_usart.o(.text.usart_enable)
    [Anonymous Symbol]                       0x08002724   Section        0  gd32e23x_usart.o(.text.usart_flag_get)
    [Anonymous Symbol]                       0x08002734   Section        0  gd32e23x_usart.o(.text.usart_interrupt_enable)
    [Anonymous Symbol]                       0x08002748   Section        0  gd32e23x_usart.o(.text.usart_interrupt_flag_clear)
    __arm_cp.73_0                            0x0800276c   Number         4  gd32e23x_usart.o(.text.usart_interrupt_flag_clear)
    [Anonymous Symbol]                       0x08002770   Section        0  gd32e23x_usart.o(.text.usart_interrupt_flag_get)
    [Anonymous Symbol]                       0x0800278e   Section        0  gd32e23x_usart.o(.text.usart_receive_config)
    [Anonymous Symbol]                       0x0800279e   Section        0  gd32e23x_usart.o(.text.usart_receive_fifo_enable)
    [Anonymous Symbol]                       0x080027ac   Section        0  gd32e23x_usart.o(.text.usart_receiver_timeout_enable)
    [Anonymous Symbol]                       0x080027b8   Section        0  gd32e23x_usart.o(.text.usart_receiver_timeout_threshold_config)
    [Anonymous Symbol]                       0x080027ca   Section        0  gd32e23x_usart.o(.text.usart_transmit_config)
    i.__0printf$5                            0x080027dc   Section        0  printf5.o(i.__0printf$5)
    i.__scatterload_copy                     0x080027fc   Section       14  handlers.o(i.__scatterload_copy)
    i.__scatterload_null                     0x0800280a   Section        2  handlers.o(i.__scatterload_null)
    i.__scatterload_zeroinit                 0x0800280c   Section       14  handlers.o(i.__scatterload_zeroinit)
    _printf_core                             0x0800281d   Thumb Code   688  printf5.o(i._printf_core)
    i._printf_core                           0x0800281c   Section        0  printf5.o(i._printf_core)
    i.puts                                   0x08002af8   Section        0  puts.o(i.puts)
    [Anonymous Symbol]                       0x08002b18   Section        0  gd32e23x_rcu.o(.rodata.cst8)
    [Anonymous Symbol]                       0x08002b20   Section        0  bspi2c.o(.rodata.str1.1)
    [Anonymous Symbol]                       0x08002b38   Section        0  loadprotocol.o(.rodata.str1.1)
    [Anonymous Symbol]                       0x08002b9f   Section        0  loadmain.o(.rodata.str1.1)
    .data                                    0x20000000   Section        4  stdout.o(.data)
    main.tgCfgUart10                         0x20000060   Data          80  loadmain.o(.data.main.tgCfgUart10)
    [Anonymous Symbol]                       0x20000060   Section        0  loadmain.o(.data.main.tgCfgUart10)
    gProSendBuf                              0x200000bc   Data          64  loadprotocol.o(.bss.gProSendBuf)
    [Anonymous Symbol]                       0x200000bc   Section        0  loadprotocol.o(.bss.gProSendBuf)
    gtI2c0                                   0x200000fc   Data          28  bspi2c.o(.bss.gtI2c0)
    [Anonymous Symbol]                       0x200000fc   Section        0  bspi2c.o(.bss.gtI2c0)
    gtI2c1                                   0x20000118   Data          28  bspi2c.o(.bss.gtI2c1)
    [Anonymous Symbol]                       0x20000118   Section        0  bspi2c.o(.bss.gtI2c1)
    gtParaI2c0.0                             0x2000013c   Data           4  bspi2c.o(.bss.gtParaI2c0.0)
    [Anonymous Symbol]                       0x2000013c   Section        0  bspi2c.o(.bss.gtParaI2c0.0)
    gtParaI2c0.1                             0x20000140   Data           1  bspi2c.o(.bss.gtParaI2c0.1)
    [Anonymous Symbol]                       0x20000140   Section        0  bspi2c.o(.bss.gtParaI2c0.1)
    gtParaI2c1.0                             0x20000144   Data           4  bspi2c.o(.bss.gtParaI2c1.0)
    [Anonymous Symbol]                       0x20000144   Section        0  bspi2c.o(.bss.gtParaI2c1.0)
    gtParaI2c1.1                             0x20000148   Data           1  bspi2c.o(.bss.gtParaI2c1.1)
    [Anonymous Symbol]                       0x20000148   Section        0  bspi2c.o(.bss.gtParaI2c1.1)
    gtProRece                                0x2000014c   Data         644  loadprotocol.o(.bss.gtProRece)
    [Anonymous Symbol]                       0x2000014c   Section        0  loadprotocol.o(.bss.gtProRece)
    gtProReceApp                             0x200003d0   Data         644  loadprotocol.o(.bss.gtProReceApp)
    [Anonymous Symbol]                       0x200003d0   Section        0  loadprotocol.o(.bss.gtProReceApp)
    protocolProcessing.hasReceivedPackNum    0x20000654   Data           2  loadprotocol.o(.bss.protocolProcessing.hasReceivedPackNum)
    [Anonymous Symbol]                       0x20000654   Section        0  loadprotocol.o(.bss.protocolProcessing.hasReceivedPackNum)
    protocolProcessing.updataPackNum         0x20000656   Data           2  loadprotocol.o(.bss.protocolProcessing.updataPackNum)
    [Anonymous Symbol]                       0x20000656   Section        0  loadprotocol.o(.bss.protocolProcessing.updataPackNum)
    protocolProcessing.updateBuf             0x20000658   Data        1024  loadprotocol.o(.bss.protocolProcessing.updateBuf)
    [Anonymous Symbol]                       0x20000658   Section        0  loadprotocol.o(.bss.protocolProcessing.updateBuf)
    protocolProcessing.updateSize            0x20000a58   Data           4  loadprotocol.o(.bss.protocolProcessing.updateSize)
    [Anonymous Symbol]                       0x20000a58   Section        0  loadprotocol.o(.bss.protocolProcessing.updateSize)
    setWorkSta.tUserData                     0x20000a5c   Data         140  loadmain.o(.bss.setWorkSta.tUserData)
    [Anonymous Symbol]                       0x20000a5c   Section        0  loadmain.o(.bss.setWorkSta.tUserData)
    tgDmaSta                                 0x20000b00   Data          28  bspdma.o(.bss.tgDmaSta)
    [Anonymous Symbol]                       0x20000b00   Section        0  bspdma.o(.bss.tgDmaSta)
    STACK                                    0x20000b38   Section     2048  startup_gd32e23x.o(STACK)

    Global Symbols

    Symbol Name                              Value     Ov Type        Size  Object(Section)

    BuildAttributes$$THM_ISAv3M$S$8M$PE$A:L22$X:L11$S22$IEEE1$IW$~IW$USESV6$~STKCKD$USESV7$~SHL$OTIME$ROPI$EBA8$MICROLIB$REQ8$PRES8$EABIv2 0x00000000   Number         0  anon$$obj.o ABSOLUTE
    _printf_a                                0x00000000   Number         0  printfstubs.o ABSOLUTE
    _printf_c                                0x00000000   Number         0  printfstubs.o ABSOLUTE
    _printf_charcount                        0x00000000   Number         0  printfstubs.o ABSOLUTE
    _printf_d                                0x00000000   Number         0  printfstubs.o ABSOLUTE
    _printf_e                                0x00000000   Number         0  printfstubs.o ABSOLUTE
    _printf_f                                0x00000000   Number         0  printfstubs.o ABSOLUTE
    _printf_flags                            0x00000000   Number         0  printfstubs.o ABSOLUTE
    _printf_fp_dec                           0x00000000   Number         0  printfstubs.o ABSOLUTE
    _printf_fp_hex                           0x00000000   Number         0  printfstubs.o ABSOLUTE
    _printf_g                                0x00000000   Number         0  printfstubs.o ABSOLUTE
    _printf_i                                0x00000000   Number         0  printfstubs.o ABSOLUTE
    _printf_int_dec                          0x00000000   Number         0  printfstubs.o ABSOLUTE
    _printf_l                                0x00000000   Number         0  printfstubs.o ABSOLUTE
    _printf_lc                               0x00000000   Number         0  printfstubs.o ABSOLUTE
    _printf_ll                               0x00000000   Number         0  printfstubs.o ABSOLUTE
    _printf_lld                              0x00000000   Number         0  printfstubs.o ABSOLUTE
    _printf_lli                              0x00000000   Number         0  printfstubs.o ABSOLUTE
    _printf_llo                              0x00000000   Number         0  printfstubs.o ABSOLUTE
    _printf_llu                              0x00000000   Number         0  printfstubs.o ABSOLUTE
    _printf_llx                              0x00000000   Number         0  printfstubs.o ABSOLUTE
    _printf_longlong_dec                     0x00000000   Number         0  printfstubs.o ABSOLUTE
    _printf_longlong_hex                     0x00000000   Number         0  printfstubs.o ABSOLUTE
    _printf_longlong_oct                     0x00000000   Number         0  printfstubs.o ABSOLUTE
    _printf_ls                               0x00000000   Number         0  printfstubs.o ABSOLUTE
    _printf_mbtowc                           0x00000000   Number         0  printfstubs.o ABSOLUTE
    _printf_n                                0x00000000   Number         0  printfstubs.o ABSOLUTE
    _printf_o                                0x00000000   Number         0  printfstubs.o ABSOLUTE
    _printf_p                                0x00000000   Number         0  printfstubs.o ABSOLUTE
    _printf_percent                          0x00000000   Number         0  printfstubs.o ABSOLUTE
    _printf_pre_padding                      0x00000000   Number         0  printfstubs.o ABSOLUTE
    _printf_return_value                     0x00000000   Number         0  printfstubs.o ABSOLUTE
    _printf_s                                0x00000000   Number         0  printfstubs.o ABSOLUTE
    _printf_sizespec                         0x00000000   Number         0  printfstubs.o ABSOLUTE
    _printf_str                              0x00000000   Number         0  printfstubs.o ABSOLUTE
    _printf_truncate_signed                  0x00000000   Number         0  printfstubs.o ABSOLUTE
    _printf_truncate_unsigned                0x00000000   Number         0  printfstubs.o ABSOLUTE
    _printf_u                                0x00000000   Number         0  printfstubs.o ABSOLUTE
    _printf_wc                               0x00000000   Number         0  printfstubs.o ABSOLUTE
    _printf_wctomb                           0x00000000   Number         0  printfstubs.o ABSOLUTE
    _printf_widthprec                        0x00000000   Number         0  printfstubs.o ABSOLUTE
    _printf_x                                0x00000000   Number         0  printfstubs.o ABSOLUTE
    __cpp_initialize__aeabi_                  - Undefined Weak Reference
    __cxa_finalize                            - Undefined Weak Reference
    __decompress                              - Undefined Weak Reference
    _clock_init                               - Undefined Weak Reference
    _microlib_exit                            - Undefined Weak Reference
    __Vectors_Size                           0x000000cc   Number         0  startup_gd32e23x.o ABSOLUTE
    __Vectors                                0x08000000   Data           4  startup_gd32e23x.o(RESET)
    __Vectors_End                            0x080000cc   Data           0  startup_gd32e23x.o(RESET)
    __main                                   0x080000cd   Thumb Code     0  entry.o(.ARM.Collect$$$$00000000)
    _main_stk                                0x080000cd   Thumb Code     0  entry2.o(.ARM.Collect$$$$00000001)
    _main_scatterload                        0x080000d1   Thumb Code     0  entry5.o(.ARM.Collect$$$$00000004)
    __main_after_scatterload                 0x080000d5   Thumb Code     0  entry5.o(.ARM.Collect$$$$00000004)
    _main_clock                              0x080000d5   Thumb Code     0  entry7b.o(.ARM.Collect$$$$00000008)
    _main_cpp_init                           0x080000d5   Thumb Code     0  entry8b.o(.ARM.Collect$$$$0000000A)
    _main_init                               0x080000d5   Thumb Code     0  entry9a.o(.ARM.Collect$$$$0000000B)
    __rt_final_cpp                           0x080000dd   Thumb Code     0  entry10a.o(.ARM.Collect$$$$0000000D)
    __rt_final_exit                          0x080000dd   Thumb Code     0  entry11a.o(.ARM.Collect$$$$0000000F)
    Reset_Handler                            0x080000e1   Thumb Code     8  startup_gd32e23x.o(.text)
    NMI_Handler                              0x080000e9   Thumb Code     2  startup_gd32e23x.o(.text)
    SVC_Handler                              0x080000ed   Thumb Code     2  startup_gd32e23x.o(.text)
    PendSV_Handler                           0x080000ef   Thumb Code     2  startup_gd32e23x.o(.text)
    ADC_CMP_IRQHandler                       0x080000f3   Thumb Code     0  startup_gd32e23x.o(.text)
    EXTI0_1_IRQHandler                       0x080000f3   Thumb Code     0  startup_gd32e23x.o(.text)
    EXTI2_3_IRQHandler                       0x080000f3   Thumb Code     0  startup_gd32e23x.o(.text)
    EXTI4_15_IRQHandler                      0x080000f3   Thumb Code     0  startup_gd32e23x.o(.text)
    FMC_IRQHandler                           0x080000f3   Thumb Code     0  startup_gd32e23x.o(.text)
    LVD_IRQHandler                           0x080000f3   Thumb Code     0  startup_gd32e23x.o(.text)
    RCU_IRQHandler                           0x080000f3   Thumb Code     0  startup_gd32e23x.o(.text)
    RTC_IRQHandler                           0x080000f3   Thumb Code     0  startup_gd32e23x.o(.text)
    SPI0_IRQHandler                          0x080000f3   Thumb Code     0  startup_gd32e23x.o(.text)
    SPI1_IRQHandler                          0x080000f3   Thumb Code     0  startup_gd32e23x.o(.text)
    TIMER0_BRK_UP_TRG_COM_IRQHandler         0x080000f3   Thumb Code     0  startup_gd32e23x.o(.text)
    TIMER0_Channel_IRQHandler                0x080000f3   Thumb Code     0  startup_gd32e23x.o(.text)
    WWDGT_IRQHandler                         0x080000f3   Thumb Code     0  startup_gd32e23x.o(.text)
    __aeabi_memcpy                           0x080000fd   Thumb Code    36  memcpya.o(.text)
    __aeabi_memcpy4                          0x080000fd   Thumb Code     0  memcpya.o(.text)
    __aeabi_memcpy8                          0x080000fd   Thumb Code     0  memcpya.o(.text)
    __aeabi_memset                           0x08000121   Thumb Code    14  memseta.o(.text)
    __aeabi_memset4                          0x08000121   Thumb Code     0  memseta.o(.text)
    __aeabi_memset8                          0x08000121   Thumb Code     0  memseta.o(.text)
    __aeabi_memclr                           0x0800012f   Thumb Code     4  memseta.o(.text)
    __aeabi_memclr4                          0x0800012f   Thumb Code     0  memseta.o(.text)
    __aeabi_memclr8                          0x0800012f   Thumb Code     0  memseta.o(.text)
    _memset$wrapper                          0x08000133   Thumb Code    18  memseta.o(.text)
    __aeabi_uldivmod                         0x08000145   Thumb Code    96  uldiv.o(.text)
    __aeabi_llsr                             0x080001a5   Thumb Code    34  llushr.o(.text)
    _ll_ushift_r                             0x080001a5   Thumb Code     0  llushr.o(.text)
    __scatterload                            0x080001c9   Thumb Code    28  init.o(.text)
    __scatterload_rt2                        0x080001c9   Thumb Code     0  init.o(.text)
    __aeabi_llsl                             0x080001ed   Thumb Code    32  llshl.o(.text)
    _ll_shift_l                              0x080001ed   Thumb Code     0  llshl.o(.text)
    DMA_Channel0_IRQHandler                  0x0800020d   Thumb Code   124  bspdma.o(.text.DMA_Channel0_IRQHandler)
    DMA_Channel1_2_IRQHandler                0x08000289   Thumb Code   228  bspdma.o(.text.DMA_Channel1_2_IRQHandler)
    DMA_Channel3_4_IRQHandler                0x0800036d   Thumb Code   228  bspdma.o(.text.DMA_Channel3_4_IRQHandler)
    HardFault_Handler                        0x08000455   Thumb Code    16  loadmain.o(.text.HardFault_Handler)
    I2C0_ER_IRQHandler                       0x08000485   Thumb Code   216  bspi2c.o(.text.I2C0_ER_IRQHandler)
    I2C0_EV_IRQHandler                       0x0800055d   Thumb Code   460  bspi2c.o(.text.I2C0_EV_IRQHandler)
    I2C1_ER_IRQHandler                       0x08000741   Thumb Code   204  bspi2c.o(.text.I2C1_ER_IRQHandler)
    I2C1_EV_IRQHandler                       0x08000829   Thumb Code   460  bspi2c.o(.text.I2C1_EV_IRQHandler)
    SysTick_Handler                          0x08000a19   Thumb Code    36  loadmain.o(.text.SysTick_Handler)
    SystemInit                               0x08000a4d   Thumb Code   204  system_gd32e23x.o(.text.SystemInit)
    TIMER13_IRQHandler                       0x08000b39   Thumb Code    40  bsptimer.o(.text.TIMER13_IRQHandler)
    TIMER14_IRQHandler                       0x08000b65   Thumb Code    40  bsptimer.o(.text.TIMER14_IRQHandler)
    TIMER15_IRQHandler                       0x08000b91   Thumb Code    40  bsptimer.o(.text.TIMER15_IRQHandler)
    TIMER16_IRQHandler                       0x08000bbd   Thumb Code    40  bsptimer.o(.text.TIMER16_IRQHandler)
    TIMER2_IRQHandler                        0x08000be9   Thumb Code    40  bsptimer.o(.text.TIMER2_IRQHandler)
    TIMER5_IRQHandler                        0x08000c15   Thumb Code    40  bsptimer.o(.text.TIMER5_IRQHandler)
    USART0_IRQHandler                        0x08000c45   Thumb Code   132  bspuart.o(.text.USART0_IRQHandler)
    USART1_IRQHandler                        0x08000cd5   Thumb Code    56  bspuart.o(.text.USART1_IRQHandler)
    bspDelayMs                               0x08000d15   Thumb Code    20  bspbase.o(.text.bspDelayMs)
    dma_channel_disable                      0x08000d31   Thumb Code    16  gd32e23x_dma.o(.text.dma_channel_disable)
    dma_deinit                               0x08000d45   Thumb Code    44  gd32e23x_dma.o(.text.dma_deinit)
    dma_interrupt_flag_clear                 0x08000d71   Thumb Code    16  gd32e23x_dma.o(.text.dma_interrupt_flag_clear)
    dma_interrupt_flag_get                   0x08000d85   Thumb Code    64  gd32e23x_dma.o(.text.dma_interrupt_flag_get)
    fmcErasePages                            0x08000dc9   Thumb Code    80  bspfmc.o(.text.fmcErasePages)
    fmcProgram                               0x08000e19   Thumb Code   152  bspfmc.o(.text.fmcProgram)
    fmc_flag_clear                           0x08000eb5   Thumb Code     8  gd32e23x_fmc.o(.text.fmc_flag_clear)
    fmc_flag_get                             0x08000ebd   Thumb Code    16  gd32e23x_fmc.o(.text.fmc_flag_get)
    fmc_lock                                 0x08000ecd   Thumb Code    12  gd32e23x_fmc.o(.text.fmc_lock)
    fmc_page_erase                           0x08000edd   Thumb Code   100  gd32e23x_fmc.o(.text.fmc_page_erase)
    fmc_unlock                               0x08000f41   Thumb Code    20  gd32e23x_fmc.o(.text.fmc_unlock)
    fmc_word_program                         0x08000f61   Thumb Code    92  gd32e23x_fmc.o(.text.fmc_word_program)
    fputc                                    0x08000fc5   Thumb Code    32  bspuart.o(.text.fputc)
    fwdgt_config                             0x08000fed   Thumb Code    64  gd32e23x_fwdgt.o(.text.fwdgt_config)
    fwdgt_counter_reload                     0x08001039   Thumb Code     8  gd32e23x_fwdgt.o(.text.fwdgt_counter_reload)
    fwdgt_enable                             0x08001045   Thumb Code     8  gd32e23x_fwdgt.o(.text.fwdgt_enable)
    gpioConfig                               0x08001055   Thumb Code    52  bspgpio.o(.text.gpioConfig)
    gpio_af_set                              0x08001089   Thumb Code   228  gd32e23x_gpio.o(.text.gpio_af_set)
    gpio_bit_toggle                          0x08001185   Thumb Code     4  gd32e23x_gpio.o(.text.gpio_bit_toggle)
    gpio_bit_write                           0x08001189   Thumb Code    14  gd32e23x_gpio.o(.text.gpio_bit_write)
    gpio_mode_set                            0x08001197   Thumb Code    66  gd32e23x_gpio.o(.text.gpio_mode_set)
    gpio_output_options_set                  0x080011d9   Thumb Code    70  gd32e23x_gpio.o(.text.gpio_output_options_set)
    i2cInit                                  0x08001221   Thumb Code   192  bspi2c.o(.text.i2cInit)
    i2cSlaveRead                             0x080012e5   Thumb Code   516  bspi2c.o(.text.i2cSlaveRead)
    i2cSlaveWrite                            0x0800152d   Thumb Code   556  bspi2c.o(.text.i2cSlaveWrite)
    i2c_ack_config                           0x0800179d   Thumb Code    22  gd32e23x_i2c.o(.text.i2c_ack_config)
    i2c_ackpos_config                        0x080017b3   Thumb Code    20  gd32e23x_i2c.o(.text.i2c_ackpos_config)
    i2c_clock_config                         0x080017c9   Thumb Code   268  gd32e23x_i2c.o(.text.i2c_clock_config)
    i2c_data_receive                         0x080018f1   Thumb Code     6  gd32e23x_i2c.o(.text.i2c_data_receive)
    i2c_data_transmit                        0x080018f7   Thumb Code     4  gd32e23x_i2c.o(.text.i2c_data_transmit)
    i2c_deinit                               0x080018fd   Thumb Code    40  gd32e23x_i2c.o(.text.i2c_deinit)
    i2c_enable                               0x08001931   Thumb Code    10  gd32e23x_i2c.o(.text.i2c_enable)
    i2c_flag_get                             0x0800193b   Thumb Code    16  gd32e23x_i2c.o(.text.i2c_flag_get)
    i2c_interrupt_disable                    0x0800194b   Thumb Code    18  gd32e23x_i2c.o(.text.i2c_interrupt_disable)
    i2c_interrupt_enable                     0x0800195d   Thumb Code    18  gd32e23x_i2c.o(.text.i2c_interrupt_enable)
    i2c_interrupt_flag_clear                 0x08001971   Thumb Code    32  gd32e23x_i2c.o(.text.i2c_interrupt_flag_clear)
    i2c_interrupt_flag_get                   0x08001995   Thumb Code    68  gd32e23x_i2c.o(.text.i2c_interrupt_flag_get)
    i2c_master_addressing                    0x080019dd   Thumb Code    20  gd32e23x_i2c.o(.text.i2c_master_addressing)
    i2c_mode_addr_config                     0x080019f1   Thumb Code    24  gd32e23x_i2c.o(.text.i2c_mode_addr_config)
    i2c_software_reset_config                0x08001a0d   Thumb Code    14  gd32e23x_i2c.o(.text.i2c_software_reset_config)
    i2c_stop_on_bus                          0x08001a1b   Thumb Code    12  gd32e23x_i2c.o(.text.i2c_stop_on_bus)
    jumpToApplication                        0x08001a29   Thumb Code    88  bootloader.o(.text.jumpToApplication)
    jumpToBootloader                         0x08001af1   Thumb Code    20  bootloader.o(.text.jumpToBootloader)
    main                                     0x08001b0d   Thumb Code   340  loadmain.o(.text.main)
    nvic_irq_enable                          0x08001cdd   Thumb Code    92  gd32e23x_misc.o(.text.nvic_irq_enable)
    nvic_vector_table_set                    0x08001d45   Thumb Code    12  gd32e23x_misc.o(.text.nvic_vector_table_set)
    protocolInit                             0x08001d95   Thumb Code    56  loadprotocol.o(.text.protocolInit)
    protocolPackage                          0x08001de9   Thumb Code   140  loadprotocol.o(.text.protocolPackage)
    protocolProcessing                       0x08001e9d   Thumb Code   616  loadprotocol.o(.text.protocolProcessing)
    rcu_clock_freq_get                       0x080021cd   Thumb Code   344  gd32e23x_rcu.o(.text.rcu_clock_freq_get)
    rcu_deinit                               0x0800234d   Thumb Code   100  gd32e23x_rcu.o(.text.rcu_deinit)
    rcu_osci_on                              0x080023c1   Thumb Code    20  gd32e23x_rcu.o(.text.rcu_osci_on)
    rcu_osci_stab_wait                       0x080023d5   Thumb Code   212  gd32e23x_rcu.o(.text.rcu_osci_stab_wait)
    rcu_periph_clock_enable                  0x080024bd   Thumb Code    20  gd32e23x_rcu.o(.text.rcu_periph_clock_enable)
    rcu_periph_reset_disable                 0x080024d1   Thumb Code    20  gd32e23x_rcu.o(.text.rcu_periph_reset_disable)
    rcu_periph_reset_enable                  0x080024e5   Thumb Code    20  gd32e23x_rcu.o(.text.rcu_periph_reset_enable)
    requestStartUpdata                       0x080024fd   Thumb Code    32  loadprotocol.o(.text.requestStartUpdata)
    setWorkSta                               0x08002531   Thumb Code    72  loadmain.o(.text.setWorkSta)
    timer_interrupt_flag_clear               0x08002589   Thumb Code     6  gd32e23x_timer.o(.text.timer_interrupt_flag_clear)
    timer_interrupt_flag_get                 0x0800258f   Thumb Code    20  gd32e23x_timer.o(.text.timer_interrupt_flag_get)
    uartInit                                 0x080025a5   Thumb Code   156  bspuart.o(.text.uartInit)
    ucBufCheckSum                            0x0800264d   Thumb Code    20  arithmetic.o(.text.ucBufCheckSum)
    ucBufCheckXor                            0x08002661   Thumb Code    20  arithmetic.o(.text.ucBufCheckXor)
    usart_baudrate_set                       0x08002675   Thumb Code    76  gd32e23x_usart.o(.text.usart_baudrate_set)
    usart_data_receive                       0x080026c5   Thumb Code     8  gd32e23x_usart.o(.text.usart_data_receive)
    usart_data_transmit                      0x080026cd   Thumb Code     8  gd32e23x_usart.o(.text.usart_data_transmit)
    usart_deinit                             0x080026d9   Thumb Code    40  gd32e23x_usart.o(.text.usart_deinit)
    usart_disable                            0x08002711   Thumb Code    10  gd32e23x_usart.o(.text.usart_disable)
    usart_enable                             0x0800271b   Thumb Code    10  gd32e23x_usart.o(.text.usart_enable)
    usart_flag_get                           0x08002725   Thumb Code    16  gd32e23x_usart.o(.text.usart_flag_get)
    usart_interrupt_enable                   0x08002735   Thumb Code    18  gd32e23x_usart.o(.text.usart_interrupt_enable)
    usart_interrupt_flag_clear               0x08002749   Thumb Code    36  gd32e23x_usart.o(.text.usart_interrupt_flag_clear)
    usart_interrupt_flag_get                 0x08002771   Thumb Code    30  gd32e23x_usart.o(.text.usart_interrupt_flag_get)
    usart_receive_config                     0x0800278f   Thumb Code    16  gd32e23x_usart.o(.text.usart_receive_config)
    usart_receive_fifo_enable                0x0800279f   Thumb Code    14  gd32e23x_usart.o(.text.usart_receive_fifo_enable)
    usart_receiver_timeout_enable            0x080027ad   Thumb Code    12  gd32e23x_usart.o(.text.usart_receiver_timeout_enable)
    usart_receiver_timeout_threshold_config  0x080027b9   Thumb Code    18  gd32e23x_usart.o(.text.usart_receiver_timeout_threshold_config)
    usart_transmit_config                    0x080027cb   Thumb Code    16  gd32e23x_usart.o(.text.usart_transmit_config)
    __0printf$5                              0x080027dd   Thumb Code    24  printf5.o(i.__0printf$5)
    __1printf$5                              0x080027dd   Thumb Code     0  printf5.o(i.__0printf$5)
    __2printf                                0x080027dd   Thumb Code     0  printf5.o(i.__0printf$5)
    __scatterload_copy                       0x080027fd   Thumb Code    14  handlers.o(i.__scatterload_copy)
    __scatterload_null                       0x0800280b   Thumb Code     2  handlers.o(i.__scatterload_null)
    __scatterload_zeroinit                   0x0800280d   Thumb Code    14  handlers.o(i.__scatterload_zeroinit)
    puts                                     0x08002af9   Thumb Code    28  puts.o(i.puts)
    Region$$Table$$Base                      0x08002bb4   Number         0  anon$$obj.o(Region$$Table)
    Region$$Table$$Limit                     0x08002bd4   Number         0  anon$$obj.o(Region$$Table)
    __stdout                                 0x20000000   Data           4  stdout.o(.data)
    SystemCoreClock                          0x20000004   Data           4  system_gd32e23x.o(.data.SystemCoreClock)
    gProI2c                                  0x20000008   Data          88  loadprotocol.o(.data.gProI2c)
    sentFinish                               0x200000b0   Data           1  loadprotocol.o(.data.sentFinish)
    gLedCount                                0x200000b8   Data           2  loadmain.o(.bss.gLedCount)
    gtIsp                                    0x20000134   Data           8  loadmain.o(.bss.gtIsp)
    tUart0                                   0x20000ae8   Data          12  bspuart.o(.bss.tUart0)
    tUart1                                   0x20000af4   Data          12  bspuart.o(.bss.tUart1)
    tgTimer                                  0x20000b1c   Data          28  bsptimer.o(.bss.tgTimer)
    __initial_sp                             0x20001338   Data           0  startup_gd32e23x.o(STACK)



==============================================================================

Memory Map of the image

  Image Entry point : 0x080000cd

  Load Region LR_IROM1 (Base: 0x08000000, Size: 0x00002c90, Max: 0x00010000, ABSOLUTE)

    Execution Region ER_IROM1 (Exec base: 0x08000000, Load base: 0x08000000, Size: 0x00002bd4, Max: 0x00010000, ABSOLUTE)

    Exec Addr    Load Addr    Size         Type   Attr      Idx    E Section Name        Object

    0x08000000   0x08000000   0x000000cc   Data   RO            3    RESET               startup_gd32e23x.o
    0x080000cc   0x080000cc   0x00000000   Code   RO         1476  * .ARM.Collect$$$$00000000  mc_p.l(entry.o)
    0x080000cc   0x080000cc   0x00000004   Code   RO         1766    .ARM.Collect$$$$00000001  mc_p.l(entry2.o)
    0x080000d0   0x080000d0   0x00000004   Code   RO         1769    .ARM.Collect$$$$00000004  mc_p.l(entry5.o)
    0x080000d4   0x080000d4   0x00000000   Code   RO         1771    .ARM.Collect$$$$00000008  mc_p.l(entry7b.o)
    0x080000d4   0x080000d4   0x00000000   Code   RO         1773    .ARM.Collect$$$$0000000A  mc_p.l(entry8b.o)
    0x080000d4   0x080000d4   0x00000008   Code   RO         1774    .ARM.Collect$$$$0000000B  mc_p.l(entry9a.o)
    0x080000dc   0x080000dc   0x00000000   Code   RO         1776    .ARM.Collect$$$$0000000D  mc_p.l(entry10a.o)
    0x080000dc   0x080000dc   0x00000000   Code   RO         1778    .ARM.Collect$$$$0000000F  mc_p.l(entry11a.o)
    0x080000dc   0x080000dc   0x00000004   Code   RO         1767    .ARM.Collect$$$$00002712  mc_p.l(entry2.o)
    0x080000e0   0x080000e0   0x0000001c   Code   RO            4    .text               startup_gd32e23x.o
    0x080000fc   0x080000fc   0x00000024   Code   RO         1483    .text               mc_p.l(memcpya.o)
    0x08000120   0x08000120   0x00000024   Code   RO         1485    .text               mc_p.l(memseta.o)
    0x08000144   0x08000144   0x00000060   Code   RO         1787    .text               mc_p.l(uldiv.o)
    0x080001a4   0x080001a4   0x00000022   Code   RO         1789    .text               mc_p.l(llushr.o)
    0x080001c6   0x080001c6   0x00000002   PAD
    0x080001c8   0x080001c8   0x00000024   Code   RO         1804    .text               mc_p.l(init.o)
    0x080001ec   0x080001ec   0x00000020   Code   RO         1816    .text               mc_p.l(llshl.o)
    0x0800020c   0x0800020c   0x0000007c   Code   RO         1184    .text.DMA_Channel0_IRQHandler  bspdma.o
    0x08000288   0x08000288   0x000000e4   Code   RO         1186    .text.DMA_Channel1_2_IRQHandler  bspdma.o
    0x0800036c   0x0800036c   0x000000e8   Code   RO         1188    .text.DMA_Channel3_4_IRQHandler  bspdma.o
    0x08000454   0x08000454   0x00000030   Code   RO         1460    .text.HardFault_Handler  loadmain.o
    0x08000484   0x08000484   0x000000d8   Code   RO         1259    .text.I2C0_ER_IRQHandler  bspi2c.o
    0x0800055c   0x0800055c   0x000001e4   Code   RO         1257    .text.I2C0_EV_IRQHandler  bspi2c.o
    0x08000740   0x08000740   0x000000e8   Code   RO         1263    .text.I2C1_ER_IRQHandler  bspi2c.o
    0x08000828   0x08000828   0x000001f0   Code   RO         1261    .text.I2C1_EV_IRQHandler  bspi2c.o
    0x08000a18   0x08000a18   0x00000034   Code   RO         1458    .text.SysTick_Handler  loadmain.o
    0x08000a4c   0x08000a4c   0x000000ec   Code   RO           11    .text.SystemInit    system_gd32e23x.o
    0x08000b38   0x08000b38   0x0000002c   Code   RO         1322    .text.TIMER13_IRQHandler  bsptimer.o
    0x08000b64   0x08000b64   0x0000002c   Code   RO         1324    .text.TIMER14_IRQHandler  bsptimer.o
    0x08000b90   0x08000b90   0x0000002c   Code   RO         1326    .text.TIMER15_IRQHandler  bsptimer.o
    0x08000bbc   0x08000bbc   0x0000002c   Code   RO         1328    .text.TIMER16_IRQHandler  bsptimer.o
    0x08000be8   0x08000be8   0x0000002c   Code   RO         1318    .text.TIMER2_IRQHandler  bsptimer.o
    0x08000c14   0x08000c14   0x00000030   Code   RO         1320    .text.TIMER5_IRQHandler  bsptimer.o
    0x08000c44   0x08000c44   0x00000090   Code   RO         1357    .text.USART0_IRQHandler  bspuart.o
    0x08000cd4   0x08000cd4   0x00000040   Code   RO         1359    .text.USART1_IRQHandler  bspuart.o
    0x08000d14   0x08000d14   0x00000018   Code   RO         1165    .text.bspDelayMs    bspbase.o
    0x08000d2c   0x08000d2c   0x00000002   Code   RO         1353    .text.defaultUartCallback  bspuart.o
    0x08000d2e   0x08000d2e   0x00000002   PAD
    0x08000d30   0x08000d30   0x00000014   Code   RO          186    .text.dma_channel_disable  gd32e23x_dma.o
    0x08000d44   0x08000d44   0x0000002c   Code   RO          180    .text.dma_deinit    gd32e23x_dma.o
    0x08000d70   0x08000d70   0x00000014   Code   RO          228    .text.dma_interrupt_flag_clear  gd32e23x_dma.o
    0x08000d84   0x08000d84   0x00000044   Code   RO          226    .text.dma_interrupt_flag_get  gd32e23x_dma.o
    0x08000dc8   0x08000dc8   0x00000050   Code   RO         1199    .text.fmcErasePages  bspfmc.o
    0x08000e18   0x08000e18   0x0000009c   Code   RO         1201    .text.fmcProgram    bspfmc.o
    0x08000eb4   0x08000eb4   0x00000008   Code   RO          326    .text.fmc_flag_clear  gd32e23x_fmc.o
    0x08000ebc   0x08000ebc   0x00000010   Code   RO          324    .text.fmc_flag_get  gd32e23x_fmc.o
    0x08000ecc   0x08000ecc   0x00000010   Code   RO          276    .text.fmc_lock      gd32e23x_fmc.o
    0x08000edc   0x08000edc   0x00000064   Code   RO          284    .text.fmc_page_erase  gd32e23x_fmc.o
    0x08000f40   0x08000f40   0x00000020   Code   RO          274    .text.fmc_unlock    gd32e23x_fmc.o
    0x08000f60   0x08000f60   0x00000064   Code   RO          292    .text.fmc_word_program  gd32e23x_fmc.o
    0x08000fc4   0x08000fc4   0x00000028   Code   RO         1363    .text.fputc         bspuart.o
    0x08000fec   0x08000fec   0x0000004c   Code   RO          356    .text.fwdgt_config  gd32e23x_fwdgt.o
    0x08001038   0x08001038   0x0000000c   Code   RO          354    .text.fwdgt_counter_reload  gd32e23x_fwdgt.o
    0x08001044   0x08001044   0x00000010   Code   RO          346    .text.fwdgt_enable  gd32e23x_fwdgt.o
    0x08001054   0x08001054   0x00000034   Code   RO         1211    .text.gpioConfig    bspgpio.o
    0x08001088   0x08001088   0x000000fc   Code   RO          390    .text.gpio_af_set   gd32e23x_gpio.o
    0x08001184   0x08001184   0x00000004   Code   RO          394    .text.gpio_bit_toggle  gd32e23x_gpio.o
    0x08001188   0x08001188   0x0000000e   Code   RO          378    .text.gpio_bit_write  gd32e23x_gpio.o
    0x08001196   0x08001196   0x00000042   Code   RO          370    .text.gpio_mode_set  gd32e23x_gpio.o
    0x080011d8   0x080011d8   0x00000046   Code   RO          372    .text.gpio_output_options_set  gd32e23x_gpio.o
    0x0800121e   0x0800121e   0x00000002   PAD
    0x08001220   0x08001220   0x000000c4   Code   RO         1229    .text.i2cInit       bspi2c.o
    0x080012e4   0x080012e4   0x00000248   Code   RO         1255    .text.i2cSlaveRead  bspi2c.o
    0x0800152c   0x0800152c   0x00000270   Code   RO         1253    .text.i2cSlaveWrite  bspi2c.o
    0x0800179c   0x0800179c   0x00000016   Code   RO          414    .text.i2c_ack_config  gd32e23x_i2c.o
    0x080017b2   0x080017b2   0x00000014   Code   RO          416    .text.i2c_ackpos_config  gd32e23x_i2c.o
    0x080017c6   0x080017c6   0x00000002   PAD
    0x080017c8   0x080017c8   0x00000128   Code   RO          408    .text.i2c_clock_config  gd32e23x_i2c.o
    0x080018f0   0x080018f0   0x00000006   Code   RO          434    .text.i2c_data_receive  gd32e23x_i2c.o
    0x080018f6   0x080018f6   0x00000004   Code   RO          432    .text.i2c_data_transmit  gd32e23x_i2c.o
    0x080018fa   0x080018fa   0x00000002   PAD
    0x080018fc   0x080018fc   0x00000034   Code   RO          406    .text.i2c_deinit    gd32e23x_i2c.o
    0x08001930   0x08001930   0x0000000a   Code   RO          424    .text.i2c_enable    gd32e23x_i2c.o
    0x0800193a   0x0800193a   0x00000010   Code   RO          464    .text.i2c_flag_get  gd32e23x_i2c.o
    0x0800194a   0x0800194a   0x00000012   Code   RO          470    .text.i2c_interrupt_disable  gd32e23x_i2c.o
    0x0800195c   0x0800195c   0x00000012   Code   RO          468    .text.i2c_interrupt_enable  gd32e23x_i2c.o
    0x0800196e   0x0800196e   0x00000002   PAD
    0x08001970   0x08001970   0x00000024   Code   RO          474    .text.i2c_interrupt_flag_clear  gd32e23x_i2c.o
    0x08001994   0x08001994   0x00000048   Code   RO          472    .text.i2c_interrupt_flag_get  gd32e23x_i2c.o
    0x080019dc   0x080019dc   0x00000014   Code   RO          418    .text.i2c_master_addressing  gd32e23x_i2c.o
    0x080019f0   0x080019f0   0x0000001c   Code   RO          410    .text.i2c_mode_addr_config  gd32e23x_i2c.o
    0x08001a0c   0x08001a0c   0x0000000e   Code   RO          444    .text.i2c_software_reset_config  gd32e23x_i2c.o
    0x08001a1a   0x08001a1a   0x0000000c   Code   RO          430    .text.i2c_stop_on_bus  gd32e23x_i2c.o
    0x08001a26   0x08001a26   0x00000002   PAD
    0x08001a28   0x08001a28   0x000000c8   Code   RO         1401    .text.jumpToApplication  bootloader.o
    0x08001af0   0x08001af0   0x0000001c   Code   RO         1403    .text.jumpToBootloader  bootloader.o
    0x08001b0c   0x08001b0c   0x000001d0   Code   RO         1456    .text.main          loadmain.o
    0x08001cdc   0x08001cdc   0x00000068   Code   RO          484    .text.nvic_irq_enable  gd32e23x_misc.o
    0x08001d44   0x08001d44   0x00000014   Code   RO          490    .text.nvic_vector_table_set  gd32e23x_misc.o
    0x08001d58   0x08001d58   0x00000018   Code   RO         1425    .text.proReceCallback  loadprotocol.o
    0x08001d70   0x08001d70   0x00000024   Code   RO         1415    .text.proSendCallback  loadprotocol.o
    0x08001d94   0x08001d94   0x00000054   Code   RO         1423    .text.protocolInit  loadprotocol.o
    0x08001de8   0x08001de8   0x000000b4   Code   RO         1413    .text.protocolPackage  loadprotocol.o
    0x08001e9c   0x08001e9c   0x00000330   Code   RO         1421    .text.protocolProcessing  loadprotocol.o
    0x080021cc   0x080021cc   0x00000180   Code   RO          616    .text.rcu_clock_freq_get  gd32e23x_rcu.o
    0x0800234c   0x0800234c   0x00000074   Code   RO          540    .text.rcu_deinit    gd32e23x_rcu.o
    0x080023c0   0x080023c0   0x00000014   Code   RO          596    .text.rcu_osci_on   gd32e23x_rcu.o
    0x080023d4   0x080023d4   0x000000e8   Code   RO          594    .text.rcu_osci_stab_wait  gd32e23x_rcu.o
    0x080024bc   0x080024bc   0x00000014   Code   RO          542    .text.rcu_periph_clock_enable  gd32e23x_rcu.o
    0x080024d0   0x080024d0   0x00000014   Code   RO          552    .text.rcu_periph_reset_disable  gd32e23x_rcu.o
    0x080024e4   0x080024e4   0x00000018   Code   RO          550    .text.rcu_periph_reset_enable  gd32e23x_rcu.o
    0x080024fc   0x080024fc   0x00000034   Code   RO         1417    .text.requestStartUpdata  loadprotocol.o
    0x08002530   0x08002530   0x00000058   Code   RO         1454    .text.setWorkSta    loadmain.o
    0x08002588   0x08002588   0x00000006   Code   RO          869    .text.timer_interrupt_flag_clear  gd32e23x_timer.o
    0x0800258e   0x0800258e   0x00000014   Code   RO          867    .text.timer_interrupt_flag_get  gd32e23x_timer.o
    0x080025a2   0x080025a2   0x00000002   PAD
    0x080025a4   0x080025a4   0x000000a8   Code   RO         1351    .text.uartInit      bspuart.o
    0x0800264c   0x0800264c   0x00000014   Code   RO         1382    .text.ucBufCheckSum  arithmetic.o
    0x08002660   0x08002660   0x00000014   Code   RO         1380    .text.ucBufCheckXor  arithmetic.o
    0x08002674   0x08002674   0x00000050   Code   RO          977    .text.usart_baudrate_set  gd32e23x_usart.o
    0x080026c4   0x080026c4   0x00000008   Code   RO         1013    .text.usart_data_receive  gd32e23x_usart.o
    0x080026cc   0x080026cc   0x0000000c   Code   RO         1011    .text.usart_data_transmit  gd32e23x_usart.o
    0x080026d8   0x080026d8   0x00000038   Code   RO          975    .text.usart_deinit  gd32e23x_usart.o
    0x08002710   0x08002710   0x0000000a   Code   RO          987    .text.usart_disable  gd32e23x_usart.o
    0x0800271a   0x0800271a   0x0000000a   Code   RO          985    .text.usart_enable  gd32e23x_usart.o
    0x08002724   0x08002724   0x00000010   Code   RO         1109    .text.usart_flag_get  gd32e23x_usart.o
    0x08002734   0x08002734   0x00000012   Code   RO         1113    .text.usart_interrupt_enable  gd32e23x_usart.o
    0x08002746   0x08002746   0x00000002   PAD
    0x08002748   0x08002748   0x00000028   Code   RO         1121    .text.usart_interrupt_flag_clear  gd32e23x_usart.o
    0x08002770   0x08002770   0x0000001e   Code   RO         1119    .text.usart_interrupt_flag_get  gd32e23x_usart.o
    0x0800278e   0x0800278e   0x00000010   Code   RO          991    .text.usart_receive_config  gd32e23x_usart.o
    0x0800279e   0x0800279e   0x0000000e   Code   RO         1103    .text.usart_receive_fifo_enable  gd32e23x_usart.o
    0x080027ac   0x080027ac   0x0000000c   Code   RO         1005    .text.usart_receiver_timeout_enable  gd32e23x_usart.o
    0x080027b8   0x080027b8   0x00000012   Code   RO         1009    .text.usart_receiver_timeout_threshold_config  gd32e23x_usart.o
    0x080027ca   0x080027ca   0x00000010   Code   RO          989    .text.usart_transmit_config  gd32e23x_usart.o
    0x080027da   0x080027da   0x00000002   PAD
    0x080027dc   0x080027dc   0x00000020   Code   RO         1622    i.__0printf$5       mc_p.l(printf5.o)
    0x080027fc   0x080027fc   0x0000000e   Code   RO         1822    i.__scatterload_copy  mc_p.l(handlers.o)
    0x0800280a   0x0800280a   0x00000002   Code   RO         1823    i.__scatterload_null  mc_p.l(handlers.o)
    0x0800280c   0x0800280c   0x0000000e   Code   RO         1824    i.__scatterload_zeroinit  mc_p.l(handlers.o)
    0x0800281a   0x0800281a   0x00000002   PAD
    0x0800281c   0x0800281c   0x000002dc   Code   RO         1629    i._printf_core      mc_p.l(printf5.o)
    0x08002af8   0x08002af8   0x00000020   Code   RO         1479    i.puts              mc_p.l(puts.o)
    0x08002b18   0x08002b18   0x00000008   Data   RO          618    .rodata.cst8        gd32e23x_rcu.o
    0x08002b20   0x08002b20   0x00000018   Data   RO         1271    .rodata.str1.1      bspi2c.o
    0x08002b38   0x08002b38   0x00000067   Data   RO         1435    .rodata.str1.1      loadprotocol.o
    0x08002b9f   0x08002b9f   0x00000014   Data   RO         1467    .rodata.str1.1      loadmain.o
    0x08002bb3   0x08002bb3   0x00000001   PAD
    0x08002bb4   0x08002bb4   0x00000020   Data   RO         1821    Region$$Table       anon$$obj.o


    Execution Region RW_IRAM1 (Exec base: 0x20000000, Load base: 0x08002bd8, Size: 0x00001338, Max: 0x00002000, ABSOLUTE)

    Exec Addr    Load Addr    Size         Type   Attr      Idx    E Section Name        Object

    0x20000000   0x08002bd8   0x00000004   Data   RW         1780    .data               mc_p.l(stdout.o)
    0x20000004   0x08002bdc   0x00000004   Data   RW           15    .data.SystemCoreClock  system_gd32e23x.o
    0x20000008   0x08002be0   0x00000058   Data   RW         1428    .data.gProI2c       loadprotocol.o
    0x20000060   0x08002c38   0x00000050   Data   RW         1466    .data.main.tgCfgUart10  loadmain.o
    0x200000b0   0x08002c88   0x00000001   Data   RW         1427    .data.sentFinish    loadprotocol.o
    0x200000b1   0x08002c89   0x00000007   PAD
    0x200000b8        -       0x00000002   Zero   RW         1463    .bss.gLedCount      loadmain.o
    0x200000ba   0x08002c89   0x00000002   PAD
    0x200000bc        -       0x00000040   Zero   RW         1429    .bss.gProSendBuf    loadprotocol.o
    0x200000fc        -       0x0000001c   Zero   RW         1265    .bss.gtI2c0         bspi2c.o
    0x20000118        -       0x0000001c   Zero   RW         1266    .bss.gtI2c1         bspi2c.o
    0x20000134        -       0x00000008   Zero   RW         1465    .bss.gtIsp          loadmain.o
    0x2000013c        -       0x00000004   Zero   RW         1267    .bss.gtParaI2c0.0   bspi2c.o
    0x20000140        -       0x00000001   Zero   RW         1268    .bss.gtParaI2c0.1   bspi2c.o
    0x20000141   0x08002c89   0x00000003   PAD
    0x20000144        -       0x00000004   Zero   RW         1269    .bss.gtParaI2c1.0   bspi2c.o
    0x20000148        -       0x00000001   Zero   RW         1270    .bss.gtParaI2c1.1   bspi2c.o
    0x20000149   0x08002c89   0x00000003   PAD
    0x2000014c        -       0x00000284   Zero   RW         1436    .bss.gtProRece      loadprotocol.o
    0x200003d0        -       0x00000284   Zero   RW         1434    .bss.gtProReceApp   loadprotocol.o
    0x20000654        -       0x00000002   Zero   RW         1432    .bss.protocolProcessing.hasReceivedPackNum  loadprotocol.o
    0x20000656        -       0x00000002   Zero   RW         1433    .bss.protocolProcessing.updataPackNum  loadprotocol.o
    0x20000658        -       0x00000400   Zero   RW         1430    .bss.protocolProcessing.updateBuf  loadprotocol.o
    0x20000a58        -       0x00000004   Zero   RW         1431    .bss.protocolProcessing.updateSize  loadprotocol.o
    0x20000a5c        -       0x0000008c   Zero   RW         1464    .bss.setWorkSta.tUserData  loadmain.o
    0x20000ae8        -       0x0000000c   Zero   RW         1365    .bss.tUart0         bspuart.o
    0x20000af4        -       0x0000000c   Zero   RW         1366    .bss.tUart1         bspuart.o
    0x20000b00        -       0x0000001c   Zero   RW         1190    .bss.tgDmaSta       bspdma.o
    0x20000b1c        -       0x0000001c   Zero   RW         1336    .bss.tgTimer        bsptimer.o
    0x20000b38        -       0x00000800   Zero   RW            1    STACK               startup_gd32e23x.o


==============================================================================

Image component sizes


      Code (inc. data)   RO Data    RW Data    ZI Data      Debug   Object Name

        40          0          0          0          0       4316   arithmetic.o
       228        120          0          0          0       1741   bootloader.o
        24          4          0          0          0        576   bspbase.o
       584          4          0          0         28       6561   bspdma.o
       236          4          0          0          0       1982   bspfmc.o
        52          0          0          0          0       2492   bspgpio.o
      2832        228         24          0         66      19978   bspi2c.o
       268         28          0          0         28       3869   bsptimer.o
       418         40          0          0         24       6652   bspuart.o
       152         12          0          0          0       6717   gd32e23x_dma.o
       272         24          0          0          0      12735   gd32e23x_fmc.o
       104         24          0          0          0       2755   gd32e23x_fwdgt.o
       406         24          0          0          0       5346   gd32e23x_gpio.o
       644         52          0          0          0       9835   gd32e23x_i2c.o
       124         20          0          0          0       3876   gd32e23x_misc.o
       816         80          8          0          0      14121   gd32e23x_rcu.o
        26          0          0          0          0      21409   gd32e23x_timer.o
       356         28          0          0          0      14407   gd32e23x_usart.o
       652        188         20         80        150       4949   loadmain.o
      1192        288        103         89       2384       6554   loadprotocol.o
        28          8        204          0       2048        628   startup_gd32e23x.o
       236         32          0          4          0       2084   system_gd32e23x.o

    ----------------------------------------------------------------------
      9708       1208        392        176       4740     153583   Object Totals
         0          0         32          0          0          0   (incl. Generated)
        18          0          1          3         12          0   (incl. Padding)

    ----------------------------------------------------------------------

      Code (inc. data)   RO Data    RW Data    ZI Data      Debug   Library Member Name

         0          0          0          0          0          0   entry.o
         0          0          0          0          0          0   entry10a.o
         0          0          0          0          0          0   entry11a.o
         8          4          0          0          0          0   entry2.o
         4          0          0          0          0          0   entry5.o
         0          0          0          0          0          0   entry7b.o
         0          0          0          0          0          0   entry8b.o
         8          4          0          0          0          0   entry9a.o
        30          0          0          0          0          0   handlers.o
        36          8          0          0          0         68   init.o
        32          0          0          0          0         68   llshl.o
        34          0          0          0          0         68   llushr.o
        36          0          0          0          0         60   memcpya.o
        36          0          0          0          0        100   memseta.o
       764         52          0          0          0        168   printf5.o
        32          4          0          0          0         68   puts.o
         0          0          0          4          0          0   stdout.o
        96          0          0          0          0         84   uldiv.o

    ----------------------------------------------------------------------
      1120         72          0          4          0        684   Library Totals
         4          0          0          0          0          0   (incl. Padding)

    ----------------------------------------------------------------------

      Code (inc. data)   RO Data    RW Data    ZI Data      Debug   Library Name

      1116         72          0          4          0        684   mc_p.l

    ----------------------------------------------------------------------
      1120         72          0          4          0        684   Library Totals

    ----------------------------------------------------------------------

==============================================================================


      Code (inc. data)   RO Data    RW Data    ZI Data      Debug   

     10828       1280        392        180       4740     153755   Grand Totals
     10828       1280        392        180       4740     153755   ELF Image Totals
     10828       1280        392        180          0          0   ROM Totals

==============================================================================

    Total RO  Size (Code + RO Data)                11220 (  10.96kB)
    Total RW  Size (RW Data + ZI Data)              4920 (   4.80kB)
    Total ROM Size (Code + RO Data + RW Data)      11400 (  11.13kB)

==============================================================================

