Component: ARM Compiler 6.16 Tool: armlink [5dfeaa00]

==============================================================================

Section Cross References

    startup_gd32f3x0.o(RESET) refers to startup_gd32f3x0.o(STACK) for __initial_sp
    startup_gd32f3x0.o(RESET) refers to startup_gd32f3x0.o(.text) for Reset_Handler
    startup_gd32f3x0.o(RESET) refers to loadmain.o(.text.HardFault_Handler) for HardFault_Handler
    startup_gd32f3x0.o(RESET) refers to loadmain.o(.text.SysTick_Handler) for SysTick_Handler
    startup_gd32f3x0.o(RESET) refers to bspdma.o(.text.DMA_Channel0_IRQHandler) for DMA_Channel0_IRQHandler
    startup_gd32f3x0.o(RESET) refers to bspdma.o(.text.DMA_Channel1_2_IRQHandler) for DMA_Channel1_2_IRQHandler
    startup_gd32f3x0.o(RESET) refers to bspdma.o(.text.DMA_Channel3_4_IRQHandler) for DMA_Channel3_4_IRQHandler
    startup_gd32f3x0.o(RESET) refers to bsptimer.o(.text.TIMER1_IRQHandler) for TIMER1_IRQHandler
    startup_gd32f3x0.o(RESET) refers to bsptimer.o(.text.TIMER2_IRQHandler) for TIMER2_IRQHandler
    startup_gd32f3x0.o(RESET) refers to bsptimer.o(.text.TIMER13_IRQHandler) for TIMER13_IRQHandler
    startup_gd32f3x0.o(RESET) refers to bsptimer.o(.text.TIMER14_IRQHandler) for TIMER14_IRQHandler
    startup_gd32f3x0.o(RESET) refers to bsptimer.o(.text.TIMER15_IRQHandler) for TIMER15_IRQHandler
    startup_gd32f3x0.o(RESET) refers to bsptimer.o(.text.TIMER16_IRQHandler) for TIMER16_IRQHandler
    startup_gd32f3x0.o(RESET) refers to bspi2c.o(.text.I2C0_EV_IRQHandler) for I2C0_EV_IRQHandler
    startup_gd32f3x0.o(RESET) refers to bspi2c.o(.text.I2C1_EV_IRQHandler) for I2C1_EV_IRQHandler
    startup_gd32f3x0.o(RESET) refers to bspuart.o(.text.USART0_IRQHandler) for USART0_IRQHandler
    startup_gd32f3x0.o(RESET) refers to bspuart.o(.text.USART1_IRQHandler) for USART1_IRQHandler
    startup_gd32f3x0.o(RESET) refers to bspi2c.o(.text.I2C0_ER_IRQHandler) for I2C0_ER_IRQHandler
==============================================================================

Removing Unused input sections from the image.

    Removing startup_gd32f3x0.o(HEAP), (0 bytes).
    Removing system_gd32f3x0.o(.text), (0 bytes).
    Removing system_gd32f3x0.o(.ARM.exidx.text.SystemInit), (8 bytes).
    Removing system_gd32f3x0.o(.text.SystemCoreClockUpdate), (200 bytes).
    Removing system_gd32f3x0.o(.ARM.exidx.text.SystemCoreClockUpdate), (8 bytes).
    Removing gd32f3x0_adc.o(.text), (0 bytes).
    Removing gd32f3x0_adc.o(.text.adc_deinit), (22 bytes).
    Removing gd32f3x0_adc.o(.ARM.exidx.text.adc_deinit), (8 bytes).
    Removing gd32f3x0_adc.o(.text.adc_enable), (26 bytes).
    Removing gd32f3x0_adc.o(.ARM.exidx.text.adc_enable), (8 bytes).
    Removing gd32f3x0_adc.o(.text.adc_disable), (18 bytes).
    Removing gd32f3x0_adc.o(.ARM.exidx.text.adc_disable), (8 bytes).
    Removing gd32f3x0_adc.o(.text.adc_calibration_enable), (82 bytes).
    Removing gd32f3x0_adc.o(.ARM.exidx.text.adc_calibration_enable), (8 bytes).
    Removing gd32f3x0_adc.o(.text.adc_dma_mode_enable), (18 bytes).
    Removing gd32f3x0_adc.o(.ARM.exidx.text.adc_dma_mode_enable), (8 bytes).
    Removing gd32f3x0_adc.o(.text.adc_dma_mode_disable), (18 bytes).
    Removing gd32f3x0_adc.o(.ARM.exidx.text.adc_dma_mode_disable), (8 bytes).
==============================================================================

Image Symbol Table

    Local Symbols

    Symbol Name                              Value     Ov Type        Size  Object(Section)

    ../clib/division.s                       0x00000000   Number         0  aeabi_sdiv.o ABSOLUTE
    ../clib/microlib/division.c              0x00000000   Number         0  uidiv.o ABSOLUTE
    ../clib/microlib/division.c              0x00000000   Number         0  uldiv.o ABSOLUTE
    ../clib/microlib/init/entry.s            0x00000000   Number         0  entry.o ABSOLUTE
    ../clib/microlib/init/entry.s            0x00000000   Number         0  entry2.o ABSOLUTE
    ../clib/microlib/init/entry.s            0x00000000   Number         0  entry5.o ABSOLUTE
    ../clib/microlib/init/entry.s            0x00000000   Number         0  entry7a.o ABSOLUTE
    ../clib/microlib/init/entry.s            0x00000000   Number         0  entry7b.o ABSOLUTE
    ../clib/microlib/init/entry.s            0x00000000   Number         0  entry8a.o ABSOLUTE
    ../clib/microlib/init/entry.s            0x00000000   Number         0  entry8b.o ABSOLUTE
    ../clib/microlib/init/entry.s            0x00000000   Number         0  entry9a.o ABSOLUTE
    ../clib/microlib/init/entry.s            0x00000000   Number         0  entry9b.o ABSOLUTE
    ../clib/microlib/init/entry.s            0x00000000   Number         0  entry10a.o ABSOLUTE
    ../clib/microlib/init/entry.s            0x00000000   Number         0  entry10b.o ABSOLUTE
    ../clib/microlib/init/entry.s            0x00000000   Number         0  entry11a.o ABSOLUTE
    ../clib/microlib/init/entry.s            0x00000000   Number         0  entry11b.o ABSOLUTE
    ../clib/microlib/longlong.c              0x00000000   Number         0  llushr.o ABSOLUTE
    ../clib/microlib/longlong.c              0x00000000   Number         0  llshl.o ABSOLUTE
    ../clib/microlib/longlong.c              0x00000000   Number         0  llsshr.o ABSOLUTE
    ../clib/microlib/printf/printf.c         0x00000000   Number         0  printfb.o ABSOLUTE
    ../clib/microlib/printf/printf.c         0x00000000   Number         0  printf0.o ABSOLUTE
    ../clib/microlib/printf/printf.c         0x00000000   Number         0  printf1.o ABSOLUTE
    ../clib/microlib/printf/printf.c         0x00000000   Number         0  printf2.o ABSOLUTE
    ../clib/microlib/printf/printf.c         0x00000000   Number         0  printf3.o ABSOLUTE
    ../clib/microlib/printf/printf.c         0x00000000   Number         0  printf4.o ABSOLUTE
    ../clib/microlib/printf/printf.c         0x00000000   Number         0  printf5.o ABSOLUTE
    ../clib/microlib/printf/printf.c         0x00000000   Number         0  printf6.o ABSOLUTE
    ../clib/microlib/printf/printf.c         0x00000000   Number         0  printf7.o ABSOLUTE
    ../clib/microlib/printf/printf.c         0x00000000   Number         0  printf8.o ABSOLUTE
    ../clib/microlib/printf/printf.c         0x00000000   Number         0  printfa.o ABSOLUTE
    ../clib/microlib/printf/stubs.s          0x00000000   Number         0  printfstubs.o ABSOLUTE
    ../clib/microlib/stdio/puts.c            0x00000000   Number         0  puts.o ABSOLUTE
    ../clib/microlib/stdio/puts.c            0x00000000   Number         0  puts_e.o ABSOLUTE
    ../clib/microlib/stdio/streams.c         0x00000000   Number         0  stdout.o ABSOLUTE
    ../clib/microlib/string/memcpy.c         0x00000000   Number         0  memcpya.o ABSOLUTE
    ../clib/microlib/string/memcpy.c         0x00000000   Number         0  memcpyb.o ABSOLUTE
    ../clib/microlib/string/memset.c         0x00000000   Number         0  memseta.o ABSOLUTE
    ../clib/microlib/stubs.s                 0x00000000   Number         0  iusefp.o ABSOLUTE
    ../fplib/microlib/fpadd.c                0x00000000   Number         0  dadd.o ABSOLUTE
    ../fplib/microlib/fpdiv.c                0x00000000   Number         0  ddiv.o ABSOLUTE
    ../fplib/microlib/fpepilogue.c           0x00000000   Number         0  depilogue.o ABSOLUTE
    ../fplib/microlib/fpfix.c                0x00000000   Number         0  dfixi.o ABSOLUTE
    ../fplib/microlib/fpfix.c                0x00000000   Number         0  dfixul.o ABSOLUTE
    ../fplib/microlib/fpflt.c                0x00000000   Number         0  dflti.o ABSOLUTE
    ../fplib/microlib/fpflt.c                0x00000000   Number         0  dfltui.o ABSOLUTE
    ../fplib/microlib/fpmul.c                0x00000000   Number         0  dmul.o ABSOLUTE
    ..\GD32F3x0\Startup\startup_gd32f3x0.s   0x00000000   Number         0  startup_gd32f3x0.o ABSOLUTE
    arithmetic.c                             0x00000000   Number         0  arithmetic.o ABSOLUTE
    bootloader.c                             0x00000000   Number         0  bootloader.o ABSOLUTE
    bspADC.c                                 0x00000000   Number         0  bspadc.o ABSOLUTE
    bspBase.c                                0x00000000   Number         0  bspbase.o ABSOLUTE
    bspDma.c                                 0x00000000   Number         0  bspdma.o ABSOLUTE
    bspFMC.c                                 0x00000000   Number         0  bspfmc.o ABSOLUTE
    bspGPIO.c                                0x00000000   Number         0  bspgpio.o ABSOLUTE
    bspI2C.c                                 0x00000000   Number         0  bspi2c.o ABSOLUTE
    bspPWM.c                                 0x00000000   Number         0  bsppwm.o ABSOLUTE
    bspSPI.c                                 0x00000000   Number         0  bspspi.o ABSOLUTE
    bspTimer.c                               0x00000000   Number         0  bsptimer.o ABSOLUTE
    bspUART.c                                0x00000000   Number         0  bspuart.o ABSOLUTE
    cdrcmple.s                               0x00000000   Number         0  cdrcmple.o ABSOLUTE
    dc.s                                     0x00000000   Number         0  dc.o ABSOLUTE
    gd32f3x0_adc.c                           0x00000000   Number         0  gd32f3x0_adc.o ABSOLUTE
    gd32f3x0_cec.c                           0x00000000   Number         0  gd32f3x0_cec.o ABSOLUTE
    gd32f3x0_cmp.c                           0x00000000   Number         0  gd32f3x0_cmp.o ABSOLUTE
    gd32f3x0_crc.c                           0x00000000   Number         0  gd32f3x0_crc.o ABSOLUTE
    gd32f3x0_ctc.c                           0x00000000   Number         0  gd32f3x0_ctc.o ABSOLUTE
    gd32f3x0_dac.c                           0x00000000   Number         0  gd32f3x0_dac.o ABSOLUTE
    gd32f3x0_dbg.c                           0x00000000   Number         0  gd32f3x0_dbg.o ABSOLUTE
    gd32f3x0_dma.c                           0x00000000   Number         0  gd32f3x0_dma.o ABSOLUTE
    gd32f3x0_exti.c                          0x00000000   Number         0  gd32f3x0_exti.o ABSOLUTE
    gd32f3x0_fmc.c                           0x00000000   Number         0  gd32f3x0_fmc.o ABSOLUTE
    gd32f3x0_fwdgt.c                         0x00000000   Number         0  gd32f3x0_fwdgt.o ABSOLUTE
    gd32f3x0_gpio.c                          0x00000000   Number         0  gd32f3x0_gpio.o ABSOLUTE
    gd32f3x0_i2c.c                           0x00000000   Number         0  gd32f3x0_i2c.o ABSOLUTE
    gd32f3x0_misc.c                          0x00000000   Number         0  gd32f3x0_misc.o ABSOLUTE
    gd32f3x0_pmu.c                           0x00000000   Number         0  gd32f3x0_pmu.o ABSOLUTE
    gd32f3x0_rcu.c                           0x00000000   Number         0  gd32f3x0_rcu.o ABSOLUTE
    gd32f3x0_rtc.c                           0x00000000   Number         0  gd32f3x0_rtc.o ABSOLUTE
    gd32f3x0_spi.c                           0x00000000   Number         0  gd32f3x0_spi.o ABSOLUTE
    gd32f3x0_syscfg.c                        0x00000000   Number         0  gd32f3x0_syscfg.o ABSOLUTE
    gd32f3x0_timer.c                         0x00000000   Number         0  gd32f3x0_timer.o ABSOLUTE
    gd32f3x0_tsi.c                           0x00000000   Number         0  gd32f3x0_tsi.o ABSOLUTE
    gd32f3x0_usart.c                         0x00000000   Number         0  gd32f3x0_usart.o ABSOLUTE
    gd32f3x0_wwdgt.c                         0x00000000   Number         0  gd32f3x0_wwdgt.o ABSOLUTE
    handlers.s                               0x00000000   Number         0  handlers.o ABSOLUTE
    init.s                                   0x00000000   Number         0  init.o ABSOLUTE
    loadMain.c                               0x00000000   Number         0  loadmain.o ABSOLUTE
    loadProtocol.c                           0x00000000   Number         0  loadprotocol.o ABSOLUTE
    system_gd32f3x0.c                        0x00000000   Number         0  system_gd32f3x0.o ABSOLUTE
    RESET                                    0x08000000   Section      336  startup_gd32f3x0.o(RESET)
    .ARM.Collect$$$$00000000                 0x08000150   Section        0  entry.o(.ARM.Collect$$$$00000000)
    .ARM.Collect$$$$00000001                 0x08000150   Section        4  entry2.o(.ARM.Collect$$$$00000001)
    .ARM.Collect$$$$00000004                 0x08000154   Section        4  entry5.o(.ARM.Collect$$$$00000004)
    .ARM.Collect$$$$00000008                 0x08000158   Section        0  entry7b.o(.ARM.Collect$$$$00000008)
    .ARM.Collect$$$$0000000A                 0x08000158   Section        0  entry8b.o(.ARM.Collect$$$$0000000A)
    .ARM.Collect$$$$0000000B                 0x08000158   Section        8  entry9a.o(.ARM.Collect$$$$0000000B)
    __lit__00000000                          0x08000160   Data           4  entry2.o(.ARM.Collect$$$$00002712)
    .ARM.Collect$$$$0000000D                 0x08000160   Section        0  entry10a.o(.ARM.Collect$$$$0000000D)
    .ARM.Collect$$$$0000000F                 0x08000160   Section        0  entry11a.o(.ARM.Collect$$$$0000000F)
    .ARM.Collect$$$$00002712                 0x08000160   Section        4  entry2.o(.ARM.Collect$$$$00002712)
    $v0                                      0x08000164   Number         0  startup_gd32f3x0.o(.text)
    .text                                    0x08000164   Section       36  startup_gd32f3x0.o(.text)
    .text                                    0x08000188   Section        0  memcpya.o(.text)
    .text                                    0x080001ac   Section        0  memseta.o(.text)
    .text                                    0x080001d0   Section        0  uldiv.o(.text)
    .text                                    0x08000232   Section        0  llushr.o(.text)
    .text                                    0x08000254   Section       36  init.o(.text)
    .text                                    0x08000278   Section        0  llshl.o(.text)
    [Anonymous Symbol]                       0x08000298   Section        0  bspdma.o(.text.DMA_Channel0_IRQHandler)
    [Anonymous Symbol]                       0x08000324   Section        0  bspdma.o(.text.DMA_Channel1_2_IRQHandler)
    [Anonymous Symbol]                       0x080003fc   Section        0  bspdma.o(.text.DMA_Channel3_4_IRQHandler)
    [Anonymous Symbol]                       0x080004d4   Section        0  bspdma.o(.text.DMA_Channel5_6_IRQHandler)
    [Anonymous Symbol]                       0x080005ac   Section        0  loadmain.o(.text.HardFault_Handler)
    [Anonymous Symbol]                       0x080005e0   Section        0  bspi2c.o(.text.I2C0_ER_IRQHandler)
    [Anonymous Symbol]                       0x080006d0   Section        0  bspi2c.o(.text.I2C0_EV_IRQHandler)
    [Anonymous Symbol]                       0x0800096c   Section        0  bspi2c.o(.text.I2C1_ER_IRQHandler)
    [Anonymous Symbol]                       0x08000a5c   Section        0  bspi2c.o(.text.I2C1_EV_IRQHandler)
    [Anonymous Symbol]                       0x08000cf8   Section        0  loadmain.o(.text.SysTick_Handler)
    [Anonymous Symbol]                       0x08000d2c   Section        0  system_gd32f3x0.o(.text.SystemInit)
    [Anonymous Symbol]                       0x08000fbc   Section        0  bsptimer.o(.text.TIMER13_IRQHandler)
    [Anonymous Symbol]                       0x08001020   Section        0  bsptimer.o(.text.TIMER14_IRQHandler)
    [Anonymous Symbol]                       0x080010b0   Section        0  bsptimer.o(.text.TIMER15_IRQHandler)
    [Anonymous Symbol]                       0x08001114   Section        0  bsptimer.o(.text.TIMER16_IRQHandler)
    [Anonymous Symbol]                       0x08001178   Section        0  bsptimer.o(.text.TIMER1_IRQHandler)
    [Anonymous Symbol]                       0x08001270   Section        0  bsptimer.o(.text.TIMER2_IRQHandler)
    [Anonymous Symbol]                       0x08001354   Section        0  bspuart.o(.text.USART0_IRQHandler)
    [Anonymous Symbol]                       0x080013f4   Section        0  bspuart.o(.text.USART1_IRQHandler)
    __NVIC_SystemReset                       0x0800143d   Thumb Code    42  bootloader.o(.text.__NVIC_SystemReset)
    [Anonymous Symbol]                       0x0800143c   Section        0  bootloader.o(.text.__NVIC_SystemReset)
    [Anonymous Symbol]                       0x08001468   Section        0  bspbase.o(.text.bspDelayMs)
    defaultUartCallback                      0x080014e5   Thumb Code     2  bspuart.o(.text.defaultUartCallback)
    [Anonymous Symbol]                       0x080014e4   Section        0  bspuart.o(.text.defaultUartCallback)
    [Anonymous Symbol]                       0x080014e8   Section        0  gd32f3x0_dma.o(.text.dma_channel_disable)
    [Anonymous Symbol]                       0x08001500   Section        0  gd32f3x0_dma.o(.text.dma_deinit)
    [Anonymous Symbol]                       0x08001530   Section        0  gd32f3x0_dma.o(.text.dma_interrupt_flag_clear)
    [Anonymous Symbol]                       0x08001544   Section        0  gd32f3x0_dma.o(.text.dma_interrupt_flag_get)
    [Anonymous Symbol]                       0x08001594   Section        0  bspfmc.o(.text.fmcErasePages)
    [Anonymous Symbol]                       0x080015d8   Section        0  bspfmc.o(.text.fmcProgram)
    [Anonymous Symbol]                       0x08001668   Section        0  gd32f3x0_fmc.o(.text.fmc_flag_clear)
    [Anonymous Symbol]                       0x08001674   Section        0  gd32f3x0_fmc.o(.text.fmc_flag_get)
    [Anonymous Symbol]                       0x08001688   Section        0  gd32f3x0_fmc.o(.text.fmc_lock)
    [Anonymous Symbol]                       0x0800169c   Section        0  gd32f3x0_fmc.o(.text.fmc_page_erase)
    [Anonymous Symbol]                       0x0800185c   Section        0  gd32f3x0_fmc.o(.text.fmc_unlock)
    [Anonymous Symbol]                       0x08001884   Section        0  gd32f3x0_fmc.o(.text.fmc_word_program)
    [Anonymous Symbol]                       0x08001a40   Section        0  bspuart.o(.text.fputc)
    [Anonymous Symbol]                       0x08001a68   Section        0  gd32f3x0_fwdgt.o(.text.fwdgt_config)
    [Anonymous Symbol]                       0x08001b24   Section        0  gd32f3x0_fwdgt.o(.text.fwdgt_counter_reload)
    [Anonymous Symbol]                       0x08001b34   Section        0  gd32f3x0_fwdgt.o(.text.fwdgt_enable)
    [Anonymous Symbol]                       0x08001b44   Section        0  bspgpio.o(.text.gpioConfig)
    [Anonymous Symbol]                       0x08001b80   Section        0  bspgpio.o(.text.gpioGetInput)
    [Anonymous Symbol]                       0x08001b8c   Section        0  bspgpio.o(.text.gpioWrite)
    [Anonymous Symbol]                       0x08001b98   Section        0  gd32f3x0_gpio.o(.text.gpio_af_set)
    [Anonymous Symbol]                       0x08001c68   Section        0  gd32f3x0_gpio.o(.text.gpio_bit_toggle)
    [Anonymous Symbol]                       0x08001c6c   Section        0  gd32f3x0_gpio.o(.text.gpio_bit_write)
    [Anonymous Symbol]                       0x08001c78   Section        0  gd32f3x0_gpio.o(.text.gpio_input_bit_get)
    [Anonymous Symbol]                       0x08001c84   Section        0  gd32f3x0_gpio.o(.text.gpio_mode_set)
    [Anonymous Symbol]                       0x08001dfc   Section        0  gd32f3x0_gpio.o(.text.gpio_output_options_set)
    [Anonymous Symbol]                       0x08001fd8   Section        0  bspi2c.o(.text.i2cInit)
    [Anonymous Symbol]                       0x08002120   Section        0  bspi2c.o(.text.i2cReinit)
    [Anonymous Symbol]                       0x080022b8   Section        0  bspi2c.o(.text.i2cSlaveRead)
    [Anonymous Symbol]                       0x080024e4   Section        0  bspi2c.o(.text.i2cSlaveWrite)
    [Anonymous Symbol]                       0x08002720   Section        0  gd32f3x0_i2c.o(.text.i2c_ack_config)
    [Anonymous Symbol]                       0x08002734   Section        0  gd32f3x0_i2c.o(.text.i2c_ackpos_config)
    [Anonymous Symbol]                       0x08002748   Section        0  gd32f3x0_i2c.o(.text.i2c_clock_config)
    [Anonymous Symbol]                       0x0800287c   Section        0  gd32f3x0_i2c.o(.text.i2c_data_receive)
    [Anonymous Symbol]                       0x08002884   Section        0  gd32f3x0_i2c.o(.text.i2c_data_transmit)
    [Anonymous Symbol]                       0x08002888   Section        0  gd32f3x0_i2c.o(.text.i2c_deinit)
    [Anonymous Symbol]                       0x080028c0   Section        0  gd32f3x0_i2c.o(.text.i2c_enable)
    [Anonymous Symbol]                       0x080028cc   Section        0  gd32f3x0_i2c.o(.text.i2c_flag_get)
    [Anonymous Symbol]                       0x080028dc   Section        0  gd32f3x0_i2c.o(.text.i2c_interrupt_disable)
    [Anonymous Symbol]                       0x080028f4   Section        0  gd32f3x0_i2c.o(.text.i2c_interrupt_enable)
    [Anonymous Symbol]                       0x0800290c   Section        0  gd32f3x0_i2c.o(.text.i2c_interrupt_flag_clear)
    [Anonymous Symbol]                       0x08002938   Section        0  gd32f3x0_i2c.o(.text.i2c_interrupt_flag_get)
    [Anonymous Symbol]                       0x08002988   Section        0  gd32f3x0_i2c.o(.text.i2c_master_addressing)
    [Anonymous Symbol]                       0x08002998   Section        0  gd32f3x0_i2c.o(.text.i2c_mode_addr_config)
    [Anonymous Symbol]                       0x080029b4   Section        0  gd32f3x0_i2c.o(.text.i2c_software_reset_config)
    [Anonymous Symbol]                       0x080029c0   Section        0  gd32f3x0_i2c.o(.text.i2c_stop_on_bus)
    [Anonymous Symbol]                       0x080029cc   Section        0  bootloader.o(.text.jumpToApplication)
    [Anonymous Symbol]                       0x08002a98   Section        0  bootloader.o(.text.jumpToBootloader)
    [Anonymous Symbol]                       0x08002a9c   Section        0  loadmain.o(.text.main)
    [Anonymous Symbol]                       0x08002c8c   Section        0  gd32f3x0_misc.o(.text.nvic_irq_enable)
    [Anonymous Symbol]                       0x08002cf0   Section        0  gd32f3x0_misc.o(.text.nvic_vector_table_set)
    proReceCallback                          0x08002d0d   Thumb Code    34  loadprotocol.o(.text.proReceCallback)
    [Anonymous Symbol]                       0x08002d0c   Section        0  loadprotocol.o(.text.proReceCallback)
    proSendCallback                          0x08002d31   Thumb Code    48  loadprotocol.o(.text.proSendCallback)
    [Anonymous Symbol]                       0x08002d30   Section        0  loadprotocol.o(.text.proSendCallback)
    [Anonymous Symbol]                       0x08002d60   Section        0  loadprotocol.o(.text.protocolInit)
    [Anonymous Symbol]                       0x08002dc0   Section        0  loadprotocol.o(.text.protocolPackage)
    [Anonymous Symbol]                       0x08002ecc   Section        0  loadprotocol.o(.text.protocolProcessing)
    [Anonymous Symbol]                       0x08003274   Section        0  gd32f3x0_rcu.o(.text.rcu_clock_freq_get)
    [Anonymous Symbol]                       0x08003470   Section        0  gd32f3x0_rcu.o(.text.rcu_deinit)
    [Anonymous Symbol]                       0x08003510   Section        0  gd32f3x0_rcu.o(.text.rcu_osci_on)
    [Anonymous Symbol]                       0x08003530   Section        0  gd32f3x0_rcu.o(.text.rcu_osci_stab_wait)
    [Anonymous Symbol]                       0x08003704   Section        0  gd32f3x0_rcu.o(.text.rcu_periph_clock_disable)
    [Anonymous Symbol]                       0x08003724   Section        0  gd32f3x0_rcu.o(.text.rcu_periph_clock_enable)
    [Anonymous Symbol]                       0x08003744   Section        0  gd32f3x0_rcu.o(.text.rcu_periph_reset_disable)
    [Anonymous Symbol]                       0x08003764   Section        0  gd32f3x0_rcu.o(.text.rcu_periph_reset_enable)
    [Anonymous Symbol]                       0x08003784   Section        0  loadprotocol.o(.text.requestStartUpdata)
    [Anonymous Symbol]                       0x080037b8   Section        0  loadmain.o(.text.setWorkSta)
    [Anonymous Symbol]                       0x0800381c   Section        0  gd32f3x0_timer.o(.text.timer_channel_capture_value_register_read)
    [Anonymous Symbol]                       0x0800382c   Section        0  gd32f3x0_timer.o(.text.timer_interrupt_flag_clear)
    [Anonymous Symbol]                       0x08003834   Section        0  gd32f3x0_timer.o(.text.timer_interrupt_flag_get)
    [Anonymous Symbol]                       0x0800384c   Section        0  bspuart.o(.text.uartInit)
    [Anonymous Symbol]                       0x08003924   Section        0  arithmetic.o(.text.ucBufCheckSum)
    [Anonymous Symbol]                       0x08003990   Section        0  arithmetic.o(.text.ucBufCheckXor)
    [Anonymous Symbol]                       0x08003a04   Section        0  gd32f3x0_usart.o(.text.usart_baudrate_set)
    [Anonymous Symbol]                       0x08003a60   Section        0  gd32f3x0_usart.o(.text.usart_data_receive)
    [Anonymous Symbol]                       0x08003a68   Section        0  gd32f3x0_usart.o(.text.usart_data_transmit)
    [Anonymous Symbol]                       0x08003a70   Section        0  gd32f3x0_usart.o(.text.usart_deinit)
    [Anonymous Symbol]                       0x08003aa8   Section        0  gd32f3x0_usart.o(.text.usart_disable)
    [Anonymous Symbol]                       0x08003ab4   Section        0  gd32f3x0_usart.o(.text.usart_enable)
    [Anonymous Symbol]                       0x08003ac0   Section        0  gd32f3x0_usart.o(.text.usart_flag_get)
    [Anonymous Symbol]                       0x08003ad0   Section        0  gd32f3x0_usart.o(.text.usart_interrupt_enable)
    [Anonymous Symbol]                       0x08003ae8   Section        0  gd32f3x0_usart.o(.text.usart_interrupt_flag_clear)
    [Anonymous Symbol]                       0x08003b14   Section        0  gd32f3x0_usart.o(.text.usart_interrupt_flag_get)
    [Anonymous Symbol]                       0x08003b38   Section        0  gd32f3x0_usart.o(.text.usart_receive_config)
    [Anonymous Symbol]                       0x08003b48   Section        0  gd32f3x0_usart.o(.text.usart_receive_fifo_enable)
    [Anonymous Symbol]                       0x08003b58   Section        0  gd32f3x0_usart.o(.text.usart_receiver_timeout_enable)
    [Anonymous Symbol]                       0x08003b64   Section        0  gd32f3x0_usart.o(.text.usart_receiver_timeout_threshold_config)
    [Anonymous Symbol]                       0x08003b74   Section        0  gd32f3x0_usart.o(.text.usart_transmit_config)
    i.__0printf$8                            0x08003b84   Section        0  printf8.o(i.__0printf$8)
    i.__scatterload_copy                     0x08003ba4   Section       14  handlers.o(i.__scatterload_copy)
    i.__scatterload_null                     0x08003bb2   Section        2  handlers.o(i.__scatterload_null)
    i.__scatterload_zeroinit                 0x08003bb4   Section       14  handlers.o(i.__scatterload_zeroinit)
    _printf_core                             0x08003bc5   Thumb Code   996  printf8.o(i._printf_core)
    i._printf_core                           0x08003bc4   Section        0  printf8.o(i._printf_core)
    _printf_post_padding                     0x08003fd5   Thumb Code    36  printf8.o(i._printf_post_padding)
    i._printf_post_padding                   0x08003fd4   Section        0  printf8.o(i._printf_post_padding)
    _printf_pre_padding                      0x08003ff9   Thumb Code    46  printf8.o(i._printf_pre_padding)
    i._printf_pre_padding                    0x08003ff8   Section        0  printf8.o(i._printf_pre_padding)
    i.puts                                   0x08004028   Section        0  puts.o(i.puts)
    .L__const.rcu_clock_freq_get.apb2_exp    0x0800404c   Data           8  gd32f3x0_rcu.o(.rodata.cst8)
    .L.str.6                                 0x08004054   Data          45  loadprotocol.o(.rodata.str1.1)
    [Anonymous Symbol]                       0x08004054   Section        0  loadprotocol.o(.rodata.str1.1)
    .L.str.9                                 0x08004081   Data          23  loadprotocol.o(.rodata.str1.1)
    .L.str.10                                0x08004098   Data          19  loadprotocol.o(.rodata.str1.1)
    .L.str.7                                 0x080040ab   Data          16  loadprotocol.o(.rodata.str1.1)
    .Lstr                                    0x080040bb   Data          20  loadmain.o(.rodata.str1.1)
    [Anonymous Symbol]                       0x080040bb   Section        0  loadmain.o(.rodata.str1.1)
    .data                                    0x20000000   Section        4  stdout.o(.data)
    main.tgCfgUart10                         0x20000068   Data          88  loadmain.o(.data.main.tgCfgUart10)
    [Anonymous Symbol]                       0x20000068   Section        0  loadmain.o(.data.main.tgCfgUart10)
    gProSendBuf                              0x200000cc   Data          64  loadprotocol.o(.bss.gProSendBuf)
    [Anonymous Symbol]                       0x200000cc   Section        0  loadprotocol.o(.bss.gProSendBuf)
    gtI2c0                                   0x2000010c   Data          28  bspi2c.o(.bss.gtI2c0)
    [Anonymous Symbol]                       0x2000010c   Section        0  bspi2c.o(.bss.gtI2c0)
    gtI2c1                                   0x20000128   Data          28  bspi2c.o(.bss.gtI2c1)
    [Anonymous Symbol]                       0x20000128   Section        0  bspi2c.o(.bss.gtI2c1)
    gtParaI2c0.0                             0x2000014c   Data           4  bspi2c.o(.bss.gtParaI2c0.0)
    [Anonymous Symbol]                       0x2000014c   Section        0  bspi2c.o(.bss.gtParaI2c0.0)
    gtParaI2c0.1                             0x20000150   Data           1  bspi2c.o(.bss.gtParaI2c0.1)
    [Anonymous Symbol]                       0x20000150   Section        0  bspi2c.o(.bss.gtParaI2c0.1)
    gtParaI2c1.0                             0x20000154   Data           4  bspi2c.o(.bss.gtParaI2c1.0)
    [Anonymous Symbol]                       0x20000154   Section        0  bspi2c.o(.bss.gtParaI2c1.0)
    gtParaI2c1.1                             0x20000158   Data           1  bspi2c.o(.bss.gtParaI2c1.1)
    [Anonymous Symbol]                       0x20000158   Section        0  bspi2c.o(.bss.gtParaI2c1.1)
    gtProRece                                0x2000015c   Data         644  loadprotocol.o(.bss.gtProRece)
    [Anonymous Symbol]                       0x2000015c   Section        0  loadprotocol.o(.bss.gtProRece)
    gtProReceApp                             0x200003e0   Data         644  loadprotocol.o(.bss.gtProReceApp)
    [Anonymous Symbol]                       0x200003e0   Section        0  loadprotocol.o(.bss.gtProReceApp)
    protocolProcessing.hasReceivedPackNum    0x20000664   Data           2  loadprotocol.o(.bss.protocolProcessing.hasReceivedPackNum)
    [Anonymous Symbol]                       0x20000664   Section        0  loadprotocol.o(.bss.protocolProcessing.hasReceivedPackNum)
    protocolProcessing.updataPackNum         0x20000666   Data           2  loadprotocol.o(.bss.protocolProcessing.updataPackNum)
    [Anonymous Symbol]                       0x20000666   Section        0  loadprotocol.o(.bss.protocolProcessing.updataPackNum)
    protocolProcessing.updateBuf             0x20000668   Data        1024  loadprotocol.o(.bss.protocolProcessing.updateBuf)
    [Anonymous Symbol]                       0x20000668   Section        0  loadprotocol.o(.bss.protocolProcessing.updateBuf)
    protocolProcessing.updateSize            0x20000a68   Data           4  loadprotocol.o(.bss.protocolProcessing.updateSize)
    [Anonymous Symbol]                       0x20000a68   Section        0  loadprotocol.o(.bss.protocolProcessing.updateSize)
    setWorkSta.tUserData                     0x20000a6c   Data         140  loadmain.o(.bss.setWorkSta.tUserData)
    [Anonymous Symbol]                       0x20000a6c   Section        0  loadmain.o(.bss.setWorkSta.tUserData)
    tgDmaSta                                 0x20000b10   Data          36  bspdma.o(.bss.tgDmaSta)
    [Anonymous Symbol]                       0x20000b10   Section        0  bspdma.o(.bss.tgDmaSta)
    STACK                                    0x20000b50   Section     2048  startup_gd32f3x0.o(STACK)

    Global Symbols

    Symbol Name                              Value     Ov Type        Size  Object(Section)

    BuildAttributes$$THM_ISAv4$E$P$D$K$B$S$7EM$VFPi3$EXTD16$VFPS$VFMA$PE$A:L22UL41UL21$X:L11$S22US41US21$IEEE1$IW$~IW$USESV6$~STKCKD$USESV7$~SHL$OTIME$ROPI$EBA8$MICROLIB$REQ8$PRES8$EABIv2 0x00000000   Number         0  anon$$obj.o ABSOLUTE
    _printf_a                                0x00000000   Number         0  printfstubs.o ABSOLUTE
    _printf_c                                0x00000000   Number         0  printfstubs.o ABSOLUTE
    _printf_charcount                        0x00000000   Number         0  printfstubs.o ABSOLUTE
    _printf_d                                0x00000000   Number         0  printfstubs.o ABSOLUTE
    _printf_e                                0x00000000   Number         0  printfstubs.o ABSOLUTE
    _printf_f                                0x00000000   Number         0  printfstubs.o ABSOLUTE
    _printf_flags                            0x00000000   Number         0  printfstubs.o ABSOLUTE
    _printf_fp_dec                           0x00000000   Number         0  printfstubs.o ABSOLUTE
    _printf_fp_hex                           0x00000000   Number         0  printfstubs.o ABSOLUTE
    _printf_g                                0x00000000   Number         0  printfstubs.o ABSOLUTE
    _printf_i                                0x00000000   Number         0  printfstubs.o ABSOLUTE
    _printf_int_dec                          0x00000000   Number         0  printfstubs.o ABSOLUTE
    _printf_l                                0x00000000   Number         0  printfstubs.o ABSOLUTE
    _printf_lc                               0x00000000   Number         0  printfstubs.o ABSOLUTE
    _printf_ll                               0x00000000   Number         0  printfstubs.o ABSOLUTE
    _printf_lld                              0x00000000   Number         0  printfstubs.o ABSOLUTE
    _printf_lli                              0x00000000   Number         0  printfstubs.o ABSOLUTE
    _printf_llo                              0x00000000   Number         0  printfstubs.o ABSOLUTE
    _printf_llu                              0x00000000   Number         0  printfstubs.o ABSOLUTE
    _printf_llx                              0x00000000   Number         0  printfstubs.o ABSOLUTE
    _printf_longlong_dec                     0x00000000   Number         0  printfstubs.o ABSOLUTE
    _printf_longlong_hex                     0x00000000   Number         0  printfstubs.o ABSOLUTE
    _printf_longlong_oct                     0x00000000   Number         0  printfstubs.o ABSOLUTE
    _printf_ls                               0x00000000   Number         0  printfstubs.o ABSOLUTE
    _printf_mbtowc                           0x00000000   Number         0  printfstubs.o ABSOLUTE
    _printf_n                                0x00000000   Number         0  printfstubs.o ABSOLUTE
    _printf_o                                0x00000000   Number         0  printfstubs.o ABSOLUTE
    _printf_p                                0x00000000   Number         0  printfstubs.o ABSOLUTE
    _printf_percent                          0x00000000   Number         0  printfstubs.o ABSOLUTE
    _printf_pre_padding                      0x00000000   Number         0  printfstubs.o ABSOLUTE
    _printf_return_value                     0x00000000   Number         0  printfstubs.o ABSOLUTE
    _printf_s                                0x00000000   Number         0  printfstubs.o ABSOLUTE
    _printf_sizespec                         0x00000000   Number         0  printfstubs.o ABSOLUTE
    _printf_str                              0x00000000   Number         0  printfstubs.o ABSOLUTE
    _printf_truncate_signed                  0x00000000   Number         0  printfstubs.o ABSOLUTE
    _printf_truncate_unsigned                0x00000000   Number         0  printfstubs.o ABSOLUTE
    _printf_u                                0x00000000   Number         0  printfstubs.o ABSOLUTE
    _printf_wc                               0x00000000   Number         0  printfstubs.o ABSOLUTE
    _printf_wctomb                           0x00000000   Number         0  printfstubs.o ABSOLUTE
    _printf_widthprec                        0x00000000   Number         0  printfstubs.o ABSOLUTE
    _printf_x                                0x00000000   Number         0  printfstubs.o ABSOLUTE
    __cpp_initialize__aeabi_                  - Undefined Weak Reference
    __cxa_finalize                            - Undefined Weak Reference
    __decompress                              - Undefined Weak Reference
    _clock_init                               - Undefined Weak Reference
    _microlib_exit                            - Undefined Weak Reference
    __Vectors_Size                           0x00000150   Number         0  startup_gd32f3x0.o ABSOLUTE
    __Vectors                                0x08000000   Data           4  startup_gd32f3x0.o(RESET)
    __Vectors_End                            0x08000150   Data           0  startup_gd32f3x0.o(RESET)
    __main                                   0x08000151   Thumb Code     0  entry.o(.ARM.Collect$$$$00000000)
    _main_stk                                0x08000151   Thumb Code     0  entry2.o(.ARM.Collect$$$$00000001)
    _main_scatterload                        0x08000155   Thumb Code     0  entry5.o(.ARM.Collect$$$$00000004)
    __main_after_scatterload                 0x08000159   Thumb Code     0  entry5.o(.ARM.Collect$$$$00000004)
    _main_clock                              0x08000159   Thumb Code     0  entry7b.o(.ARM.Collect$$$$00000008)
    _main_cpp_init                           0x08000159   Thumb Code     0  entry8b.o(.ARM.Collect$$$$0000000A)
    _main_init                               0x08000159   Thumb Code     0  entry9a.o(.ARM.Collect$$$$0000000B)
    __rt_final_cpp                           0x08000161   Thumb Code     0  entry10a.o(.ARM.Collect$$$$0000000D)
    __rt_final_exit                          0x08000161   Thumb Code     0  entry11a.o(.ARM.Collect$$$$0000000F)
    Reset_Handler                            0x08000165   Thumb Code     8  startup_gd32f3x0.o(.text)
    NMI_Handler                              0x0800016d   Thumb Code     2  startup_gd32f3x0.o(.text)
    MemManage_Handler                        0x08000171   Thumb Code     2  startup_gd32f3x0.o(.text)
    BusFault_Handler                         0x08000173   Thumb Code     2  startup_gd32f3x0.o(.text)
    UsageFault_Handler                       0x08000175   Thumb Code     2  startup_gd32f3x0.o(.text)
    SVC_Handler                              0x08000177   Thumb Code     2  startup_gd32f3x0.o(.text)
    DebugMon_Handler                         0x08000179   Thumb Code     2  startup_gd32f3x0.o(.text)
    PendSV_Handler                           0x0800017b   Thumb Code     2  startup_gd32f3x0.o(.text)
    ADC_CMP_IRQHandler                       0x0800017f   Thumb Code     0  startup_gd32f3x0.o(.text)
    CEC_IRQHandler                           0x0800017f   Thumb Code     0  startup_gd32f3x0.o(.text)
    EXTI0_1_IRQHandler                       0x0800017f   Thumb Code     0  startup_gd32f3x0.o(.text)
    EXTI2_3_IRQHandler                       0x0800017f   Thumb Code     0  startup_gd32f3x0.o(.text)
    EXTI4_15_IRQHandler                      0x0800017f   Thumb Code     0  startup_gd32f3x0.o(.text)
    FMC_IRQHandler                           0x0800017f   Thumb Code     0  startup_gd32f3x0.o(.text)
    LVD_IRQHandler                           0x0800017f   Thumb Code     0  startup_gd32f3x0.o(.text)
    RCU_CTC_IRQHandler                       0x0800017f   Thumb Code     0  startup_gd32f3x0.o(.text)
    RTC_IRQHandler                           0x0800017f   Thumb Code     0  startup_gd32f3x0.o(.text)
    SPI0_IRQHandler                          0x0800017f   Thumb Code     0  startup_gd32f3x0.o(.text)
    SPI1_IRQHandler                          0x0800017f   Thumb Code     0  startup_gd32f3x0.o(.text)
    TIMER0_BRK_UP_TRG_COM_IRQHandler         0x0800017f   Thumb Code     0  startup_gd32f3x0.o(.text)
    TIMER0_Channel_IRQHandler                0x0800017f   Thumb Code     0  startup_gd32f3x0.o(.text)
    TIMER5_DAC_IRQHandler                    0x0800017f   Thumb Code     0  startup_gd32f3x0.o(.text)
    TSI_IRQHandler                           0x0800017f   Thumb Code     0  startup_gd32f3x0.o(.text)
    USBFS_IRQHandler                         0x0800017f   Thumb Code     0  startup_gd32f3x0.o(.text)
    USBFS_WKUP_IRQHandler                    0x0800017f   Thumb Code     0  startup_gd32f3x0.o(.text)
    WWDGT_IRQHandler                         0x0800017f   Thumb Code     0  startup_gd32f3x0.o(.text)
    __aeabi_memcpy                           0x08000189   Thumb Code    36  memcpya.o(.text)
    __aeabi_memcpy4                          0x08000189   Thumb Code     0  memcpya.o(.text)
    __aeabi_memcpy8                          0x08000189   Thumb Code     0  memcpya.o(.text)
    __aeabi_memset                           0x080001ad   Thumb Code    14  memseta.o(.text)
    __aeabi_memset4                          0x080001ad   Thumb Code     0  memseta.o(.text)
    __aeabi_memset8                          0x080001ad   Thumb Code     0  memseta.o(.text)
    __aeabi_memclr                           0x080001bb   Thumb Code     4  memseta.o(.text)
    __aeabi_memclr4                          0x080001bb   Thumb Code     0  memseta.o(.text)
    __aeabi_memclr8                          0x080001bb   Thumb Code     0  memseta.o(.text)
    _memset$wrapper                          0x080001bf   Thumb Code    18  memseta.o(.text)
    __aeabi_uldivmod                         0x080001d1   Thumb Code    98  uldiv.o(.text)
    __aeabi_llsr                             0x08000233   Thumb Code    32  llushr.o(.text)
    _ll_ushift_r                             0x08000233   Thumb Code     0  llushr.o(.text)
    __scatterload                            0x08000255   Thumb Code    28  init.o(.text)
    __scatterload_rt2                        0x08000255   Thumb Code     0  init.o(.text)
    __aeabi_llsl                             0x08000279   Thumb Code    30  llshl.o(.text)
    _ll_shift_l                              0x08000279   Thumb Code     0  llshl.o(.text)
    DMA_Channel0_IRQHandler                  0x08000299   Thumb Code   140  bspdma.o(.text.DMA_Channel0_IRQHandler)
    DMA_Channel1_2_IRQHandler                0x08000325   Thumb Code   216  bspdma.o(.text.DMA_Channel1_2_IRQHandler)
    DMA_Channel3_4_IRQHandler                0x080003fd   Thumb Code   216  bspdma.o(.text.DMA_Channel3_4_IRQHandler)
    DMA_Channel5_6_IRQHandler                0x080004d5   Thumb Code   216  bspdma.o(.text.DMA_Channel5_6_IRQHandler)
    HardFault_Handler                        0x080005ad   Thumb Code    20  loadmain.o(.text.HardFault_Handler)
    I2C0_ER_IRQHandler                       0x080005e1   Thumb Code   240  bspi2c.o(.text.I2C0_ER_IRQHandler)
    I2C0_EV_IRQHandler                       0x080006d1   Thumb Code   668  bspi2c.o(.text.I2C0_EV_IRQHandler)
    I2C1_ER_IRQHandler                       0x0800096d   Thumb Code   240  bspi2c.o(.text.I2C1_ER_IRQHandler)
    I2C1_EV_IRQHandler                       0x08000a5d   Thumb Code   668  bspi2c.o(.text.I2C1_EV_IRQHandler)
    SysTick_Handler                          0x08000cf9   Thumb Code    52  loadmain.o(.text.SysTick_Handler)
    SystemInit                               0x08000d2d   Thumb Code   654  system_gd32f3x0.o(.text.SystemInit)
    TIMER13_IRQHandler                       0x08000fbd   Thumb Code   100  bsptimer.o(.text.TIMER13_IRQHandler)
    TIMER14_IRQHandler                       0x08001021   Thumb Code   142  bsptimer.o(.text.TIMER14_IRQHandler)
    TIMER15_IRQHandler                       0x080010b1   Thumb Code   100  bsptimer.o(.text.TIMER15_IRQHandler)
    TIMER16_IRQHandler                       0x08001115   Thumb Code   100  bsptimer.o(.text.TIMER16_IRQHandler)
    TIMER1_IRQHandler                        0x08001179   Thumb Code   246  bsptimer.o(.text.TIMER1_IRQHandler)
    TIMER2_IRQHandler                        0x08001271   Thumb Code   226  bsptimer.o(.text.TIMER2_IRQHandler)
    USART0_IRQHandler                        0x08001355   Thumb Code   158  bspuart.o(.text.USART0_IRQHandler)
    USART1_IRQHandler                        0x080013f5   Thumb Code    72  bspuart.o(.text.USART1_IRQHandler)
    bspDelayMs                               0x08001469   Thumb Code   122  bspbase.o(.text.bspDelayMs)
    dma_channel_disable                      0x080014e9   Thumb Code    24  gd32f3x0_dma.o(.text.dma_channel_disable)
    dma_deinit                               0x08001501   Thumb Code    48  gd32f3x0_dma.o(.text.dma_deinit)
    dma_interrupt_flag_clear                 0x08001531   Thumb Code    20  gd32f3x0_dma.o(.text.dma_interrupt_flag_clear)
    dma_interrupt_flag_get                   0x08001545   Thumb Code    80  gd32f3x0_dma.o(.text.dma_interrupt_flag_get)
    fmcErasePages                            0x08001595   Thumb Code    66  bspfmc.o(.text.fmcErasePages)
    fmcProgram                               0x080015d9   Thumb Code   144  bspfmc.o(.text.fmcProgram)
    fmc_flag_clear                           0x08001669   Thumb Code    12  gd32f3x0_fmc.o(.text.fmc_flag_clear)
    fmc_flag_get                             0x08001675   Thumb Code    18  gd32f3x0_fmc.o(.text.fmc_flag_get)
    fmc_lock                                 0x08001689   Thumb Code    18  gd32f3x0_fmc.o(.text.fmc_lock)
    fmc_page_erase                           0x0800169d   Thumb Code   446  gd32f3x0_fmc.o(.text.fmc_page_erase)
    fmc_unlock                               0x0800185d   Thumb Code    38  gd32f3x0_fmc.o(.text.fmc_unlock)
    fmc_word_program                         0x08001885   Thumb Code   444  gd32f3x0_fmc.o(.text.fmc_word_program)
    fputc                                    0x08001a41   Thumb Code    38  bspuart.o(.text.fputc)
    fwdgt_config                             0x08001a69   Thumb Code   186  gd32f3x0_fwdgt.o(.text.fwdgt_config)
    fwdgt_counter_reload                     0x08001b25   Thumb Code    16  gd32f3x0_fwdgt.o(.text.fwdgt_counter_reload)
    fwdgt_enable                             0x08001b35   Thumb Code    16  gd32f3x0_fwdgt.o(.text.fwdgt_enable)
    gpioConfig                               0x08001b45   Thumb Code    60  bspgpio.o(.text.gpioConfig)
    gpioGetInput                             0x08001b81   Thumb Code    10  bspgpio.o(.text.gpioGetInput)
    gpioWrite                                0x08001b8d   Thumb Code    12  bspgpio.o(.text.gpioWrite)
    gpio_af_set                              0x08001b99   Thumb Code   208  gd32f3x0_gpio.o(.text.gpio_af_set)
    gpio_bit_toggle                          0x08001c69   Thumb Code     4  gd32f3x0_gpio.o(.text.gpio_bit_toggle)
    gpio_bit_write                           0x08001c6d   Thumb Code    12  gd32f3x0_gpio.o(.text.gpio_bit_write)
    gpio_input_bit_get                       0x08001c79   Thumb Code    10  gd32f3x0_gpio.o(.text.gpio_input_bit_get)
    gpio_mode_set                            0x08001c85   Thumb Code   376  gd32f3x0_gpio.o(.text.gpio_mode_set)
    gpio_output_options_set                  0x08001dfd   Thumb Code   474  gd32f3x0_gpio.o(.text.gpio_output_options_set)
    i2cInit                                  0x08001fd9   Thumb Code   272  bspi2c.o(.text.i2cInit)
    i2cReinit                                0x08002121   Thumb Code   296  bspi2c.o(.text.i2cReinit)
    i2cSlaveRead                             0x080022b9   Thumb Code   532  bspi2c.o(.text.i2cSlaveRead)
    i2cSlaveWrite                            0x080024e5   Thumb Code   548  bspi2c.o(.text.i2cSlaveWrite)
    i2c_ack_config                           0x08002721   Thumb Code    18  gd32f3x0_i2c.o(.text.i2c_ack_config)
    i2c_ackpos_config                        0x08002735   Thumb Code    18  gd32f3x0_i2c.o(.text.i2c_ackpos_config)
    i2c_clock_config                         0x08002749   Thumb Code   308  gd32f3x0_i2c.o(.text.i2c_clock_config)
    i2c_data_receive                         0x0800287d   Thumb Code     6  gd32f3x0_i2c.o(.text.i2c_data_receive)
    i2c_data_transmit                        0x08002885   Thumb Code     4  gd32f3x0_i2c.o(.text.i2c_data_transmit)
    i2c_deinit                               0x08002889   Thumb Code    54  gd32f3x0_i2c.o(.text.i2c_deinit)
    i2c_enable                               0x080028c1   Thumb Code    10  gd32f3x0_i2c.o(.text.i2c_enable)
    i2c_flag_get                             0x080028cd   Thumb Code    16  gd32f3x0_i2c.o(.text.i2c_flag_get)
    i2c_interrupt_disable                    0x080028dd   Thumb Code    24  gd32f3x0_i2c.o(.text.i2c_interrupt_disable)
    i2c_interrupt_enable                     0x080028f5   Thumb Code    22  gd32f3x0_i2c.o(.text.i2c_interrupt_enable)
    i2c_interrupt_flag_clear                 0x0800290d   Thumb Code    42  gd32f3x0_i2c.o(.text.i2c_interrupt_flag_clear)
    i2c_interrupt_flag_get                   0x08002939   Thumb Code    80  gd32f3x0_i2c.o(.text.i2c_interrupt_flag_get)
    i2c_master_addressing                    0x08002989   Thumb Code    14  gd32f3x0_i2c.o(.text.i2c_master_addressing)
    i2c_mode_addr_config                     0x08002999   Thumb Code    26  gd32f3x0_i2c.o(.text.i2c_mode_addr_config)
    i2c_software_reset_config                0x080029b5   Thumb Code    12  gd32f3x0_i2c.o(.text.i2c_software_reset_config)
    i2c_stop_on_bus                          0x080029c1   Thumb Code    10  gd32f3x0_i2c.o(.text.i2c_stop_on_bus)
    jumpToApplication                        0x080029cd   Thumb Code   108  bootloader.o(.text.jumpToApplication)
    jumpToBootloader                         0x08002a99   Thumb Code     4  bootloader.o(.text.jumpToBootloader)
    main                                     0x08002a9d   Thumb Code   416  loadmain.o(.text.main)
    nvic_irq_enable                          0x08002c8d   Thumb Code   100  gd32f3x0_misc.o(.text.nvic_irq_enable)
    nvic_vector_table_set                    0x08002cf1   Thumb Code    28  gd32f3x0_misc.o(.text.nvic_vector_table_set)
    protocolInit                             0x08002d61   Thumb Code    80  loadprotocol.o(.text.protocolInit)
    protocolPackage                          0x08002dc1   Thumb Code   244  loadprotocol.o(.text.protocolPackage)
    protocolProcessing                       0x08002ecd   Thumb Code   784  loadprotocol.o(.text.protocolProcessing)
    rcu_clock_freq_get                       0x08003275   Thumb Code   492  gd32f3x0_rcu.o(.text.rcu_clock_freq_get)
    rcu_deinit                               0x08003471   Thumb Code   160  gd32f3x0_rcu.o(.text.rcu_deinit)
    rcu_osci_on                              0x08003511   Thumb Code    30  gd32f3x0_rcu.o(.text.rcu_osci_on)
    rcu_osci_stab_wait                       0x08003531   Thumb Code   466  gd32f3x0_rcu.o(.text.rcu_osci_stab_wait)
    rcu_periph_clock_disable                 0x08003705   Thumb Code    32  gd32f3x0_rcu.o(.text.rcu_periph_clock_disable)
    rcu_periph_clock_enable                  0x08003725   Thumb Code    30  gd32f3x0_rcu.o(.text.rcu_periph_clock_enable)
    rcu_periph_reset_disable                 0x08003745   Thumb Code    32  gd32f3x0_rcu.o(.text.rcu_periph_reset_disable)
    rcu_periph_reset_enable                  0x08003765   Thumb Code    30  gd32f3x0_rcu.o(.text.rcu_periph_reset_enable)
    requestStartUpdata                       0x08003785   Thumb Code    32  loadprotocol.o(.text.requestStartUpdata)
    setWorkSta                               0x080037b9   Thumb Code    98  loadmain.o(.text.setWorkSta)
    timer_channel_capture_value_register_read 0x0800381d   Thumb Code    14  gd32f3x0_timer.o(.text.timer_channel_capture_value_register_read)
    timer_interrupt_flag_clear               0x0800382d   Thumb Code     6  gd32f3x0_timer.o(.text.timer_interrupt_flag_clear)
    timer_interrupt_flag_get                 0x08003835   Thumb Code    22  gd32f3x0_timer.o(.text.timer_interrupt_flag_get)
    uartInit                                 0x0800384d   Thumb Code   216  bspuart.o(.text.uartInit)
    ucBufCheckSum                            0x08003925   Thumb Code   108  arithmetic.o(.text.ucBufCheckSum)
    ucBufCheckXor                            0x08003991   Thumb Code   116  arithmetic.o(.text.ucBufCheckXor)
    usart_baudrate_set                       0x08003a05   Thumb Code    90  gd32f3x0_usart.o(.text.usart_baudrate_set)
    usart_data_receive                       0x08003a61   Thumb Code     8  gd32f3x0_usart.o(.text.usart_data_receive)
    usart_data_transmit                      0x08003a69   Thumb Code     8  gd32f3x0_usart.o(.text.usart_data_transmit)
    usart_deinit                             0x08003a71   Thumb Code    54  gd32f3x0_usart.o(.text.usart_deinit)
    usart_disable                            0x08003aa9   Thumb Code    10  gd32f3x0_usart.o(.text.usart_disable)
    usart_enable                             0x08003ab5   Thumb Code    10  gd32f3x0_usart.o(.text.usart_enable)
    usart_flag_get                           0x08003ac1   Thumb Code    16  gd32f3x0_usart.o(.text.usart_flag_get)
    usart_interrupt_enable                   0x08003ad1   Thumb Code    22  gd32f3x0_usart.o(.text.usart_interrupt_enable)
    usart_interrupt_flag_clear               0x08003ae9   Thumb Code    44  gd32f3x0_usart.o(.text.usart_interrupt_flag_clear)
    usart_interrupt_flag_get                 0x08003b15   Thumb Code    34  gd32f3x0_usart.o(.text.usart_interrupt_flag_get)
    usart_receive_config                     0x08003b39   Thumb Code    16  gd32f3x0_usart.o(.text.usart_receive_config)
    usart_receive_fifo_enable                0x08003b49   Thumb Code    14  gd32f3x0_usart.o(.text.usart_receive_fifo_enable)
    usart_receiver_timeout_enable            0x08003b59   Thumb Code    10  gd32f3x0_usart.o(.text.usart_receiver_timeout_enable)
    usart_receiver_timeout_threshold_config  0x08003b65   Thumb Code    16  gd32f3x0_usart.o(.text.usart_receiver_timeout_threshold_config)
    usart_transmit_config                    0x08003b75   Thumb Code    16  gd32f3x0_usart.o(.text.usart_transmit_config)
    __0printf$8                              0x08003b85   Thumb Code    22  printf8.o(i.__0printf$8)
    __1printf$8                              0x08003b85   Thumb Code     0  printf8.o(i.__0printf$8)
    __2printf                                0x08003b85   Thumb Code     0  printf8.o(i.__0printf$8)
    __scatterload_copy                       0x08003ba5   Thumb Code    14  handlers.o(i.__scatterload_copy)
    __scatterload_null                       0x08003bb3   Thumb Code     2  handlers.o(i.__scatterload_null)
    __scatterload_zeroinit                   0x08003bb5   Thumb Code    14  handlers.o(i.__scatterload_zeroinit)
    puts                                     0x08004029   Thumb Code    30  puts.o(i.puts)
    Region$$Table$$Base                      0x080040d0   Number         0  anon$$obj.o(Region$$Table)
    Region$$Table$$Limit                     0x080040f0   Number         0  anon$$obj.o(Region$$Table)
    __stdout                                 0x20000000   Data           4  stdout.o(.data)
    SystemCoreClock                          0x20000004   Data           4  system_gd32f3x0.o(.data.SystemCoreClock)
    gProI2c                                  0x20000008   Data          96  loadprotocol.o(.data.gProI2c)
    sentFinish                               0x200000c0   Data           1  loadprotocol.o(.data.sentFinish)
    gLedCount                                0x200000c8   Data           2  loadmain.o(.bss.gLedCount)
    gtIsp                                    0x20000144   Data           8  loadmain.o(.bss.gtIsp)
    tUart0                                   0x20000af8   Data          12  bspuart.o(.bss.tUart0)
    tUart1                                   0x20000b04   Data          12  bspuart.o(.bss.tUart1)
    tgTimer                                  0x20000b34   Data          28  bsptimer.o(.bss.tgTimer)
    __initial_sp                             0x20001350   Data           0  startup_gd32f3x0.o(STACK)



==============================================================================

Memory Map of the image

  Image Entry point : 0x08000151

  Load Region LR_IROM1 (Base: 0x08000000, Size: 0x000041b8, Max: 0x00010000, ABSOLUTE)

    Execution Region ER_IROM1 (Exec base: 0x08000000, Load base: 0x08000000, Size: 0x000040f0, Max: 0x00010000, ABSOLUTE)

    Exec Addr    Load Addr    Size         Type   Attr      Idx    E Section Name        Object

    0x08000000   0x08000000   0x00000150   Data   RO            3    RESET               startup_gd32f3x0.o
    0x08000150   0x08000150   0x00000000   Code   RO         1620  * .ARM.Collect$$$$00000000  mc_w.l(entry.o)
    0x08000150   0x08000150   0x00000004   Code   RO         1904    .ARM.Collect$$$$00000001  mc_w.l(entry2.o)
    0x08000154   0x08000154   0x00000004   Code   RO         1907    .ARM.Collect$$$$00000004  mc_w.l(entry5.o)
    0x08000158   0x08000158   0x00000000   Code   RO         1909    .ARM.Collect$$$$00000008  mc_w.l(entry7b.o)
    0x08000158   0x08000158   0x00000000   Code   RO         1911    .ARM.Collect$$$$0000000A  mc_w.l(entry8b.o)
    0x08000158   0x08000158   0x00000008   Code   RO         1912    .ARM.Collect$$$$0000000B  mc_w.l(entry9a.o)
    0x08000160   0x08000160   0x00000000   Code   RO         1914    .ARM.Collect$$$$0000000D  mc_w.l(entry10a.o)
    0x08000160   0x08000160   0x00000000   Code   RO         1916    .ARM.Collect$$$$0000000F  mc_w.l(entry11a.o)
    0x08000160   0x08000160   0x00000004   Code   RO         1905    .ARM.Collect$$$$00002712  mc_w.l(entry2.o)
    0x08000164   0x08000164   0x00000024   Code   RO            4    .text               startup_gd32f3x0.o
    0x08000188   0x08000188   0x00000024   Code   RO         1627    .text               mc_w.l(memcpya.o)
    0x080001ac   0x080001ac   0x00000024   Code   RO         1629    .text               mc_w.l(memseta.o)
    0x080001d0   0x080001d0   0x00000062   Code   RO         1930    .text               mc_w.l(uldiv.o)
    0x08000232   0x08000232   0x00000020   Code   RO         1932    .text               mc_w.l(llushr.o)
    0x08000252   0x08000252   0x00000002   PAD
    0x08000254   0x08000254   0x00000024   Code   RO         1943    .text               mc_w.l(init.o)
    0x08000278   0x08000278   0x0000001e   Code   RO         1945    .text               mc_w.l(llshl.o)
    0x08000296   0x08000296   0x00000002   PAD
    0x08000298   0x08000298   0x0000008c   Code   RO         1331    .text.DMA_Channel0_IRQHandler  bspdma.o
    0x08000324   0x08000324   0x000000d8   Code   RO         1333    .text.DMA_Channel1_2_IRQHandler  bspdma.o
    0x080003fc   0x080003fc   0x000000d8   Code   RO         1335    .text.DMA_Channel3_4_IRQHandler  bspdma.o
    0x080004d4   0x080004d4   0x000000d8   Code   RO         1337    .text.DMA_Channel5_6_IRQHandler  bspdma.o
    0x080005ac   0x080005ac   0x00000034   Code   RO         1604    .text.HardFault_Handler  loadmain.o
    0x080005e0   0x080005e0   0x000000f0   Code   RO         1397    .text.I2C0_ER_IRQHandler  bspi2c.o
    0x080006d0   0x080006d0   0x0000029c   Code   RO         1395    .text.I2C0_EV_IRQHandler  bspi2c.o
    0x0800096c   0x0800096c   0x000000f0   Code   RO         1401    .text.I2C1_ER_IRQHandler  bspi2c.o
    0x08000a5c   0x08000a5c   0x0000029c   Code   RO         1399    .text.I2C1_EV_IRQHandler  bspi2c.o
    0x08000cf8   0x08000cf8   0x00000034   Code   RO         1602    .text.SysTick_Handler  loadmain.o
    0x08000d2c   0x08000d2c   0x0000028e   Code   RO           11    .text.SystemInit    system_gd32f3x0.o
    0x08000fba   0x08000fba   0x00000002   PAD
    0x08000fbc   0x08000fbc   0x00000064   Code   RO         1457    .text.TIMER13_IRQHandler  bsptimer.o
    0x08001020   0x08001020   0x0000008e   Code   RO         1459    .text.TIMER14_IRQHandler  bsptimer.o
    0x080010ae   0x080010ae   0x00000002   PAD
    0x080010b0   0x080010b0   0x00000064   Code   RO         1461    .text.TIMER15_IRQHandler  bsptimer.o
    0x08001114   0x08001114   0x00000064   Code   RO         1463    .text.TIMER16_IRQHandler  bsptimer.o
    0x08001178   0x08001178   0x000000f6   Code   RO         1455    .text.TIMER1_IRQHandler  bsptimer.o
    0x0800126e   0x0800126e   0x00000002   PAD
    0x08001270   0x08001270   0x000000e2   Code   RO         1453    .text.TIMER2_IRQHandler  bsptimer.o
    0x08001352   0x08001352   0x00000002   PAD
    0x08001354   0x08001354   0x0000009e   Code   RO         1499    .text.USART0_IRQHandler  bspuart.o
    0x080013f2   0x080013f2   0x00000002   PAD
    0x080013f4   0x080013f4   0x00000048   Code   RO         1501    .text.USART1_IRQHandler  bspuart.o
    0x0800143c   0x0800143c   0x0000002a   Code   RO         1547    .text.__NVIC_SystemReset  bootloader.o
    0x08001466   0x08001466   0x00000002   PAD
    0x08001468   0x08001468   0x0000007a   Code   RO         1313    .text.bspDelayMs    bspbase.o
    0x080014e2   0x080014e2   0x00000002   PAD
    0x080014e4   0x080014e4   0x00000002   Code   RO         1495    .text.defaultUartCallback  bspuart.o
    0x080014e6   0x080014e6   0x00000002   PAD
    0x080014e8   0x080014e8   0x00000018   Code   RO          246    .text.dma_channel_disable  gd32f3x0_dma.o
    0x08001500   0x08001500   0x00000030   Code   RO          240    .text.dma_deinit    gd32f3x0_dma.o
    0x08001530   0x08001530   0x00000014   Code   RO          292    .text.dma_interrupt_flag_clear  gd32f3x0_dma.o
    0x08001544   0x08001544   0x00000050   Code   RO          290    .text.dma_interrupt_flag_get  gd32f3x0_dma.o
    0x08001594   0x08001594   0x00000042   Code   RO         1349    .text.fmcErasePages  bspfmc.o
    0x080015d6   0x080015d6   0x00000002   PAD
    0x080015d8   0x080015d8   0x00000090   Code   RO         1351    .text.fmcProgram    bspfmc.o
    0x08001668   0x08001668   0x0000000c   Code   RO          390    .text.fmc_flag_clear  gd32f3x0_fmc.o
    0x08001674   0x08001674   0x00000012   Code   RO          388    .text.fmc_flag_get  gd32f3x0_fmc.o
    0x08001686   0x08001686   0x00000002   PAD
    0x08001688   0x08001688   0x00000012   Code   RO          336    .text.fmc_lock      gd32f3x0_fmc.o
    0x0800169a   0x0800169a   0x00000002   PAD
    0x0800169c   0x0800169c   0x000001be   Code   RO          344    .text.fmc_page_erase  gd32f3x0_fmc.o
    0x0800185a   0x0800185a   0x00000002   PAD
    0x0800185c   0x0800185c   0x00000026   Code   RO          334    .text.fmc_unlock    gd32f3x0_fmc.o
    0x08001882   0x08001882   0x00000002   PAD
    0x08001884   0x08001884   0x000001bc   Code   RO          350    .text.fmc_word_program  gd32f3x0_fmc.o
    0x08001a40   0x08001a40   0x00000026   Code   RO         1505    .text.fputc         bspuart.o
    0x08001a66   0x08001a66   0x00000002   PAD
    0x08001a68   0x08001a68   0x000000ba   Code   RO          416    .text.fwdgt_config  gd32f3x0_fwdgt.o
    0x08001b22   0x08001b22   0x00000002   PAD
    0x08001b24   0x08001b24   0x00000010   Code   RO          414    .text.fwdgt_counter_reload  gd32f3x0_fwdgt.o
    0x08001b34   0x08001b34   0x00000010   Code   RO          410    .text.fwdgt_enable  gd32f3x0_fwdgt.o
    0x08001b44   0x08001b44   0x0000003c   Code   RO         1361    .text.gpioConfig    bspgpio.o
    0x08001b80   0x08001b80   0x0000000a   Code   RO         1365    .text.gpioGetInput  bspgpio.o
    0x08001b8a   0x08001b8a   0x00000002   PAD
    0x08001b8c   0x08001b8c   0x0000000c   Code   RO         1363    .text.gpioWrite     bspgpio.o
    0x08001b98   0x08001b98   0x000000d0   Code   RO          450    .text.gpio_af_set   gd32f3x0_gpio.o
    0x08001c68   0x08001c68   0x00000004   Code   RO          454    .text.gpio_bit_toggle  gd32f3x0_gpio.o
    0x08001c6c   0x08001c6c   0x0000000c   Code   RO          438    .text.gpio_bit_write  gd32f3x0_gpio.o
    0x08001c78   0x08001c78   0x0000000a   Code   RO          442    .text.gpio_input_bit_get  gd32f3x0_gpio.o
    0x08001c82   0x08001c82   0x00000002   PAD
    0x08001c84   0x08001c84   0x00000178   Code   RO          430    .text.gpio_mode_set  gd32f3x0_gpio.o
    0x08001dfc   0x08001dfc   0x000001da   Code   RO          432    .text.gpio_output_options_set  gd32f3x0_gpio.o
    0x08001fd6   0x08001fd6   0x00000002   PAD
    0x08001fd8   0x08001fd8   0x00000148   Code   RO         1379    .text.i2cInit       bspi2c.o
    0x08002120   0x08002120   0x00000198   Code   RO         1381    .text.i2cReinit     bspi2c.o
    0x080022b8   0x080022b8   0x0000022c   Code   RO         1393    .text.i2cSlaveRead  bspi2c.o
    0x080024e4   0x080024e4   0x0000023c   Code   RO         1391    .text.i2cSlaveWrite  bspi2c.o
    0x08002720   0x08002720   0x00000012   Code   RO          474    .text.i2c_ack_config  gd32f3x0_i2c.o
    0x08002732   0x08002732   0x00000002   PAD
    0x08002734   0x08002734   0x00000012   Code   RO          476    .text.i2c_ackpos_config  gd32f3x0_i2c.o
    0x08002746   0x08002746   0x00000002   PAD
    0x08002748   0x08002748   0x00000134   Code   RO          468    .text.i2c_clock_config  gd32f3x0_i2c.o
    0x0800287c   0x0800287c   0x00000006   Code   RO          494    .text.i2c_data_receive  gd32f3x0_i2c.o
    0x08002882   0x08002882   0x00000002   PAD
    0x08002884   0x08002884   0x00000004   Code   RO          492    .text.i2c_data_transmit  gd32f3x0_i2c.o
    0x08002888   0x08002888   0x00000036   Code   RO          466    .text.i2c_deinit    gd32f3x0_i2c.o
    0x080028be   0x080028be   0x00000002   PAD
    0x080028c0   0x080028c0   0x0000000a   Code   RO          484    .text.i2c_enable    gd32f3x0_i2c.o
    0x080028ca   0x080028ca   0x00000002   PAD
    0x080028cc   0x080028cc   0x00000010   Code   RO          516    .text.i2c_flag_get  gd32f3x0_i2c.o
    0x080028dc   0x080028dc   0x00000018   Code   RO          522    .text.i2c_interrupt_disable  gd32f3x0_i2c.o
    0x080028f4   0x080028f4   0x00000016   Code   RO          520    .text.i2c_interrupt_enable  gd32f3x0_i2c.o
    0x0800290a   0x0800290a   0x00000002   PAD
    0x0800290c   0x0800290c   0x0000002a   Code   RO          526    .text.i2c_interrupt_flag_clear  gd32f3x0_i2c.o
    0x08002936   0x08002936   0x00000002   PAD
    0x08002938   0x08002938   0x00000050   Code   RO          524    .text.i2c_interrupt_flag_get  gd32f3x0_i2c.o
    0x08002988   0x08002988   0x0000000e   Code   RO          478    .text.i2c_master_addressing  gd32f3x0_i2c.o
    0x08002996   0x08002996   0x00000002   PAD
    0x08002998   0x08002998   0x0000001a   Code   RO          470    .text.i2c_mode_addr_config  gd32f3x0_i2c.o
    0x080029b2   0x080029b2   0x00000002   PAD
    0x080029b4   0x080029b4   0x0000000c   Code   RO          504    .text.i2c_software_reset_config  gd32f3x0_i2c.o
    0x080029c0   0x080029c0   0x0000000a   Code   RO          490    .text.i2c_stop_on_bus  gd32f3x0_i2c.o
    0x080029ca   0x080029ca   0x00000002   PAD
    0x080029cc   0x080029cc   0x000000cc   Code   RO         1543    .text.jumpToApplication  bootloader.o
    0x08002a98   0x08002a98   0x00000004   Code   RO         1545    .text.jumpToBootloader  bootloader.o
    0x08002a9c   0x08002a9c   0x000001f0   Code   RO         1600    .text.main          loadmain.o
    0x08002c8c   0x08002c8c   0x00000064   Code   RO          538    .text.nvic_irq_enable  gd32f3x0_misc.o
    0x08002cf0   0x08002cf0   0x0000001c   Code   RO          542    .text.nvic_vector_table_set  gd32f3x0_misc.o
    0x08002d0c   0x08002d0c   0x00000022   Code   RO         1569    .text.proReceCallback  loadprotocol.o
    0x08002d2e   0x08002d2e   0x00000002   PAD
    0x08002d30   0x08002d30   0x00000030   Code   RO         1559    .text.proSendCallback  loadprotocol.o
    0x08002d60   0x08002d60   0x00000060   Code   RO         1567    .text.protocolInit  loadprotocol.o
    0x08002dc0   0x08002dc0   0x0000010c   Code   RO         1557    .text.protocolPackage  loadprotocol.o
    0x08002ecc   0x08002ecc   0x000003a8   Code   RO         1565    .text.protocolProcessing  loadprotocol.o
    0x08003274   0x08003274   0x000001fc   Code   RO          694    .text.rcu_clock_freq_get  gd32f3x0_rcu.o
    0x08003470   0x08003470   0x000000a0   Code   RO          610    .text.rcu_deinit    gd32f3x0_rcu.o
    0x08003510   0x08003510   0x0000001e   Code   RO          674    .text.rcu_osci_on   gd32f3x0_rcu.o
    0x0800352e   0x0800352e   0x00000002   PAD
    0x08003530   0x08003530   0x000001d2   Code   RO          672    .text.rcu_osci_stab_wait  gd32f3x0_rcu.o
    0x08003702   0x08003702   0x00000002   PAD
    0x08003704   0x08003704   0x00000020   Code   RO          614    .text.rcu_periph_clock_disable  gd32f3x0_rcu.o
    0x08003724   0x08003724   0x0000001e   Code   RO          612    .text.rcu_periph_clock_enable  gd32f3x0_rcu.o
    0x08003742   0x08003742   0x00000002   PAD
    0x08003744   0x08003744   0x00000020   Code   RO          622    .text.rcu_periph_reset_disable  gd32f3x0_rcu.o
    0x08003764   0x08003764   0x0000001e   Code   RO          620    .text.rcu_periph_reset_enable  gd32f3x0_rcu.o
    0x08003782   0x08003782   0x00000002   PAD
    0x08003784   0x08003784   0x00000034   Code   RO         1561    .text.requestStartUpdata  loadprotocol.o
    0x080037b8   0x080037b8   0x00000062   Code   RO         1598    .text.setWorkSta    loadmain.o
    0x0800381a   0x0800381a   0x00000002   PAD
    0x0800381c   0x0800381c   0x0000000e   Code   RO         1003    .text.timer_channel_capture_value_register_read  gd32f3x0_timer.o
    0x0800382a   0x0800382a   0x00000002   PAD
    0x0800382c   0x0800382c   0x00000006   Code   RO          945    .text.timer_interrupt_flag_clear  gd32f3x0_timer.o
    0x08003832   0x08003832   0x00000002   PAD
    0x08003834   0x08003834   0x00000016   Code   RO          943    .text.timer_interrupt_flag_get  gd32f3x0_timer.o
    0x0800384a   0x0800384a   0x00000002   PAD
    0x0800384c   0x0800384c   0x000000d8   Code   RO         1493    .text.uartInit      bspuart.o
    0x08003924   0x08003924   0x0000006c   Code   RO         1524    .text.ucBufCheckSum  arithmetic.o
    0x08003990   0x08003990   0x00000074   Code   RO         1522    .text.ucBufCheckXor  arithmetic.o
    0x08003a04   0x08003a04   0x0000005a   Code   RO         1127    .text.usart_baudrate_set  gd32f3x0_usart.o
    0x08003a5e   0x08003a5e   0x00000002   PAD
    0x08003a60   0x08003a60   0x00000008   Code   RO         1163    .text.usart_data_receive  gd32f3x0_usart.o
    0x08003a68   0x08003a68   0x00000008   Code   RO         1161    .text.usart_data_transmit  gd32f3x0_usart.o
    0x08003a70   0x08003a70   0x00000036   Code   RO         1125    .text.usart_deinit  gd32f3x0_usart.o
    0x08003aa6   0x08003aa6   0x00000002   PAD
    0x08003aa8   0x08003aa8   0x0000000a   Code   RO         1137    .text.usart_disable  gd32f3x0_usart.o
    0x08003ab2   0x08003ab2   0x00000002   PAD
    0x08003ab4   0x08003ab4   0x0000000a   Code   RO         1135    .text.usart_enable  gd32f3x0_usart.o
    0x08003abe   0x08003abe   0x00000002   PAD
    0x08003ac0   0x08003ac0   0x00000010   Code   RO         1259    .text.usart_flag_get  gd32f3x0_usart.o
    0x08003ad0   0x08003ad0   0x00000016   Code   RO         1263    .text.usart_interrupt_enable  gd32f3x0_usart.o
    0x08003ae6   0x08003ae6   0x00000002   PAD
    0x08003ae8   0x08003ae8   0x0000002c   Code   RO         1269    .text.usart_interrupt_flag_clear  gd32f3x0_usart.o
    0x08003b14   0x08003b14   0x00000022   Code   RO         1267    .text.usart_interrupt_flag_get  gd32f3x0_usart.o
    0x08003b36   0x08003b36   0x00000002   PAD
    0x08003b38   0x08003b38   0x00000010   Code   RO         1141    .text.usart_receive_config  gd32f3x0_usart.o
    0x08003b48   0x08003b48   0x0000000e   Code   RO         1253    .text.usart_receive_fifo_enable  gd32f3x0_usart.o
    0x08003b56   0x08003b56   0x00000002   PAD
    0x08003b58   0x08003b58   0x0000000a   Code   RO         1155    .text.usart_receiver_timeout_enable  gd32f3x0_usart.o
    0x08003b62   0x08003b62   0x00000002   PAD
    0x08003b64   0x08003b64   0x00000010   Code   RO         1159    .text.usart_receiver_timeout_threshold_config  gd32f3x0_usart.o
    0x08003b74   0x08003b74   0x00000010   Code   RO         1139    .text.usart_transmit_config  gd32f3x0_usart.o
    0x08003b84   0x08003b84   0x00000020   Code   RO         1840    i.__0printf$8       mc_w.l(printf8.o)
    0x08003ba4   0x08003ba4   0x0000000e   Code   RO         1951    i.__scatterload_copy  mc_w.l(handlers.o)
    0x08003bb2   0x08003bb2   0x00000002   Code   RO         1952    i.__scatterload_null  mc_w.l(handlers.o)
    0x08003bb4   0x08003bb4   0x0000000e   Code   RO         1953    i.__scatterload_zeroinit  mc_w.l(handlers.o)
    0x08003bc2   0x08003bc2   0x00000002   PAD
    0x08003bc4   0x08003bc4   0x00000410   Code   RO         1847    i._printf_core      mc_w.l(printf8.o)
    0x08003fd4   0x08003fd4   0x00000024   Code   RO         1848    i._printf_post_padding  mc_w.l(printf8.o)
    0x08003ff8   0x08003ff8   0x0000002e   Code   RO         1849    i._printf_pre_padding  mc_w.l(printf8.o)
    0x08004026   0x08004026   0x00000002   PAD
    0x08004028   0x08004028   0x00000024   Code   RO         1623    i.puts              mc_w.l(puts.o)
    0x0800404c   0x0800404c   0x00000008   Data   RO          696    .rodata.cst8        gd32f3x0_rcu.o
    0x08004054   0x08004054   0x00000067   Data   RO         1579    .rodata.str1.1      loadprotocol.o
    0x080040bb   0x080040bb   0x00000014   Data   RO         1611    .rodata.str1.1      loadmain.o
    0x080040cf   0x080040cf   0x00000001   PAD
    0x080040d0   0x080040d0   0x00000020   Data   RO         1950    Region$$Table       anon$$obj.o


    Execution Region RW_IRAM1 (Exec base: 0x20000000, Load base: 0x080040f0, Size: 0x00001350, Max: 0x00002000, ABSOLUTE)

    Exec Addr    Load Addr    Size         Type   Attr      Idx    E Section Name        Object

    0x20000000   0x080040f0   0x00000004   Data   RW         1918    .data               mc_w.l(stdout.o)
    0x20000004   0x080040f4   0x00000004   Data   RW           15    .data.SystemCoreClock  system_gd32f3x0.o
    0x20000008   0x080040f8   0x00000060   Data   RW         1572    .data.gProI2c       loadprotocol.o
    0x20000068   0x08004158   0x00000058   Data   RW         1610    .data.main.tgCfgUart10  loadmain.o
    0x200000c0   0x080041b0   0x00000001   Data   RW         1571    .data.sentFinish    loadprotocol.o
    0x200000c1   0x080041b1   0x00000007   PAD
    0x200000c8        -       0x00000002   Zero   RW         1607    .bss.gLedCount      loadmain.o
    0x200000ca   0x080041b1   0x00000002   PAD
    0x200000cc        -       0x00000040   Zero   RW         1573    .bss.gProSendBuf    loadprotocol.o
    0x2000010c        -       0x0000001c   Zero   RW         1403    .bss.gtI2c0         bspi2c.o
    0x20000128        -       0x0000001c   Zero   RW         1404    .bss.gtI2c1         bspi2c.o
    0x20000144        -       0x00000008   Zero   RW         1609    .bss.gtIsp          loadmain.o
    0x2000014c        -       0x00000004   Zero   RW         1405    .bss.gtParaI2c0.0   bspi2c.o
    0x20000150        -       0x00000001   Zero   RW         1406    .bss.gtParaI2c0.1   bspi2c.o
    0x20000151   0x080041b1   0x00000003   PAD
    0x20000154        -       0x00000004   Zero   RW         1407    .bss.gtParaI2c1.0   bspi2c.o
    0x20000158        -       0x00000001   Zero   RW         1408    .bss.gtParaI2c1.1   bspi2c.o
    0x20000159   0x080041b1   0x00000003   PAD
    0x2000015c        -       0x00000284   Zero   RW         1580    .bss.gtProRece      loadprotocol.o
    0x200003e0        -       0x00000284   Zero   RW         1578    .bss.gtProReceApp   loadprotocol.o
    0x20000664        -       0x00000002   Zero   RW         1576    .bss.protocolProcessing.hasReceivedPackNum  loadprotocol.o
    0x20000666        -       0x00000002   Zero   RW         1577    .bss.protocolProcessing.updataPackNum  loadprotocol.o
    0x20000668        -       0x00000400   Zero   RW         1574    .bss.protocolProcessing.updateBuf  loadprotocol.o
    0x20000a68        -       0x00000004   Zero   RW         1575    .bss.protocolProcessing.updateSize  loadprotocol.o
    0x20000a6c        -       0x0000008c   Zero   RW         1608    .bss.setWorkSta.tUserData  loadmain.o
    0x20000af8        -       0x0000000c   Zero   RW         1507    .bss.tUart0         bspuart.o
    0x20000b04        -       0x0000000c   Zero   RW         1508    .bss.tUart1         bspuart.o
    0x20000b10        -       0x00000024   Zero   RW         1339    .bss.tgDmaSta       bspdma.o
    0x20000b34        -       0x0000001c   Zero   RW         1477    .bss.tgTimer        bsptimer.o
    0x20000b50        -       0x00000800   Zero   RW            1    STACK               startup_gd32f3x0.o


==============================================================================

Image component sizes


      Code (inc. data)   RO Data    RW Data    ZI Data      Debug   Object Name

       224          0          0          0          0       8651   arithmetic.o
       250         96          0          0          0       2178   bootloader.o
       122          0          0          0          0        580   bspbase.o
       788          0          0          0         36       7341   bspdma.o
       210          0          0          0          0       1900   bspfmc.o
        82          0          0          0          0       2573   bspgpio.o
      3680        216          0          0         66      13340   bspi2c.o
       914          0          0          0         28       6392   bsptimer.o
       486          0          0          0         24       6722   bspuart.o
       172          0          0          0          0       6796   gd32f3x0_dma.o
       976          0          0          0          0      21119   gd32f3x0_fmc.o
       218          0          0          0          0       2228   gd32f3x0_fwdgt.o
      1084          0          0          0          0       5763   gd32f3x0_gpio.o
       664          0          0          0          0       9430   gd32f3x0_i2c.o
       128          0          0          0          0       3450   gd32f3x0_misc.o
      1288         28          8          0          0      17052   gd32f3x0_rcu.o
        42          0          0          0          0      20614   gd32f3x0_timer.o
       368          0          0          0          0      15307   gd32f3x0_usart.o
       698        112         20         88        150       5024   loadmain.o
      1434        216        103         97       2384       6661   loadprotocol.o
        36          8        336          0       2048        884   startup_gd32f3x0.o
       654          0          0          4          0       2999   system_gd32f3x0.o

    ----------------------------------------------------------------------
     14608        676        500        192       4748     167004   Object Totals
         0          0         32          0          0          0   (incl. Generated)
        90          0          1          3         12          0   (incl. Padding)

    ----------------------------------------------------------------------

      Code (inc. data)   RO Data    RW Data    ZI Data      Debug   Library Member Name

         0          0          0          0          0          0   entry.o
         0          0          0          0          0          0   entry10a.o
         0          0          0          0          0          0   entry11a.o
         8          4          0          0          0          0   entry2.o
         4          0          0          0          0          0   entry5.o
         0          0          0          0          0          0   entry7b.o
         0          0          0          0          0          0   entry8b.o
         8          4          0          0          0          0   entry9a.o
        30          0          0          0          0          0   handlers.o
        36          8          0          0          0         68   init.o
        30          0          0          0          0         68   llshl.o
        32          0          0          0          0         68   llushr.o
        36          0          0          0          0         68   memcpya.o
        36          0          0          0          0        108   memseta.o
      1154         54          0          0          0        352   printf8.o
        36          6          0          0          0         80   puts.o
         0          0          0          4          0          0   stdout.o
        98          0          0          0          0         92   uldiv.o

    ----------------------------------------------------------------------
      1516         76          0          4          0        904   Library Totals
         8          0          0          0          0          0   (incl. Padding)

    ----------------------------------------------------------------------

      Code (inc. data)   RO Data    RW Data    ZI Data      Debug   Library Name

      1508         76          0          4          0        904   mc_w.l

    ----------------------------------------------------------------------
      1516         76          0          4          0        904   Library Totals

    ----------------------------------------------------------------------

==============================================================================


      Code (inc. data)   RO Data    RW Data    ZI Data      Debug   

     16124        752        500        196       4748     167296   Grand Totals
     16124        752        500        196       4748     167296   ELF Image Totals
     16124        752        500        196          0          0   ROM Totals

==============================================================================

    Total RO  Size (Code + RO Data)                16624 (  16.23kB)
    Total RW  Size (RW Data + ZI Data)              4944 (   4.83kB)
    Total ROM Size (Code + RO Data + RW Data)      16820 (  16.43kB)

==============================================================================

